{
  "contractName": "UntangledMultiSignatureWallet",
  "abi": [
    {
      "inputs": [
        {
          "internalType": "address[]",
          "name": "_owners",
          "type": "address[]"
        },
        {
          "internalType": "uint256",
          "name": "_required",
          "type": "uint256"
        }
      ],
      "payable": false,
      "stateMutability": "nonpayable",
      "type": "constructor"
    },
    {
      "anonymous": false,
      "inputs": [
        {
          "indexed": true,
          "internalType": "address",
          "name": "sender",
          "type": "address"
        },
        {
          "indexed": true,
          "internalType": "uint256",
          "name": "transactionId",
          "type": "uint256"
        }
      ],
      "name": "Confirmation",
      "type": "event"
    },
    {
      "anonymous": false,
      "inputs": [
        {
          "indexed": true,
          "internalType": "address",
          "name": "sender",
          "type": "address"
        },
        {
          "indexed": false,
          "internalType": "uint256",
          "name": "value",
          "type": "uint256"
        }
      ],
      "name": "Deposit",
      "type": "event"
    },
    {
      "anonymous": false,
      "inputs": [
        {
          "indexed": true,
          "internalType": "uint256",
          "name": "transactionId",
          "type": "uint256"
        }
      ],
      "name": "Execution",
      "type": "event"
    },
    {
      "anonymous": false,
      "inputs": [
        {
          "indexed": true,
          "internalType": "uint256",
          "name": "transactionId",
          "type": "uint256"
        }
      ],
      "name": "ExecutionFailure",
      "type": "event"
    },
    {
      "anonymous": false,
      "inputs": [
        {
          "indexed": true,
          "internalType": "address",
          "name": "owner",
          "type": "address"
        }
      ],
      "name": "OwnerAddition",
      "type": "event"
    },
    {
      "anonymous": false,
      "inputs": [
        {
          "indexed": true,
          "internalType": "address",
          "name": "owner",
          "type": "address"
        }
      ],
      "name": "OwnerRemoval",
      "type": "event"
    },
    {
      "anonymous": false,
      "inputs": [
        {
          "indexed": false,
          "internalType": "uint256",
          "name": "required",
          "type": "uint256"
        }
      ],
      "name": "RequirementChange",
      "type": "event"
    },
    {
      "anonymous": false,
      "inputs": [
        {
          "indexed": true,
          "internalType": "address",
          "name": "sender",
          "type": "address"
        },
        {
          "indexed": true,
          "internalType": "uint256",
          "name": "transactionId",
          "type": "uint256"
        }
      ],
      "name": "Revocation",
      "type": "event"
    },
    {
      "anonymous": false,
      "inputs": [
        {
          "indexed": true,
          "internalType": "uint256",
          "name": "transactionId",
          "type": "uint256"
        }
      ],
      "name": "Submission",
      "type": "event"
    },
    {
      "payable": true,
      "stateMutability": "payable",
      "type": "fallback"
    },
    {
      "constant": true,
      "inputs": [],
      "name": "MAX_OWNER_COUNT",
      "outputs": [
        {
          "internalType": "uint256",
          "name": "",
          "type": "uint256"
        }
      ],
      "payable": false,
      "stateMutability": "view",
      "type": "function"
    },
    {
      "constant": false,
      "inputs": [
        {
          "internalType": "address",
          "name": "owner",
          "type": "address"
        }
      ],
      "name": "addOwner",
      "outputs": [],
      "payable": false,
      "stateMutability": "nonpayable",
      "type": "function"
    },
    {
      "constant": false,
      "inputs": [
        {
          "internalType": "uint256",
          "name": "transactionId",
          "type": "uint256"
        }
      ],
      "name": "confirmTransaction",
      "outputs": [],
      "payable": false,
      "stateMutability": "nonpayable",
      "type": "function"
    },
    {
      "constant": true,
      "inputs": [
        {
          "internalType": "uint256",
          "name": "",
          "type": "uint256"
        },
        {
          "internalType": "address",
          "name": "",
          "type": "address"
        }
      ],
      "name": "confirmations",
      "outputs": [
        {
          "internalType": "bool",
          "name": "",
          "type": "bool"
        }
      ],
      "payable": false,
      "stateMutability": "view",
      "type": "function"
    },
    {
      "constant": true,
      "inputs": [
        {
          "internalType": "uint256",
          "name": "transactionId",
          "type": "uint256"
        }
      ],
      "name": "getConfirmationCount",
      "outputs": [
        {
          "internalType": "uint256",
          "name": "count",
          "type": "uint256"
        }
      ],
      "payable": false,
      "stateMutability": "view",
      "type": "function"
    },
    {
      "constant": true,
      "inputs": [
        {
          "internalType": "uint256",
          "name": "transactionId",
          "type": "uint256"
        }
      ],
      "name": "getConfirmations",
      "outputs": [
        {
          "internalType": "address[]",
          "name": "_confirmations",
          "type": "address[]"
        }
      ],
      "payable": false,
      "stateMutability": "view",
      "type": "function"
    },
    {
      "constant": true,
      "inputs": [],
      "name": "getOwners",
      "outputs": [
        {
          "internalType": "address[]",
          "name": "",
          "type": "address[]"
        }
      ],
      "payable": false,
      "stateMutability": "view",
      "type": "function"
    },
    {
      "constant": true,
      "inputs": [
        {
          "internalType": "bool",
          "name": "pending",
          "type": "bool"
        },
        {
          "internalType": "bool",
          "name": "executed",
          "type": "bool"
        }
      ],
      "name": "getTransactionCount",
      "outputs": [
        {
          "internalType": "uint256",
          "name": "count",
          "type": "uint256"
        }
      ],
      "payable": false,
      "stateMutability": "view",
      "type": "function"
    },
    {
      "constant": true,
      "inputs": [
        {
          "internalType": "uint256",
          "name": "from",
          "type": "uint256"
        },
        {
          "internalType": "uint256",
          "name": "to",
          "type": "uint256"
        },
        {
          "internalType": "bool",
          "name": "pending",
          "type": "bool"
        },
        {
          "internalType": "bool",
          "name": "executed",
          "type": "bool"
        }
      ],
      "name": "getTransactionIds",
      "outputs": [
        {
          "internalType": "uint256[]",
          "name": "_transactionIds",
          "type": "uint256[]"
        }
      ],
      "payable": false,
      "stateMutability": "view",
      "type": "function"
    },
    {
      "constant": true,
      "inputs": [
        {
          "internalType": "uint256",
          "name": "transactionId",
          "type": "uint256"
        }
      ],
      "name": "isConfirmed",
      "outputs": [
        {
          "internalType": "bool",
          "name": "",
          "type": "bool"
        }
      ],
      "payable": false,
      "stateMutability": "view",
      "type": "function"
    },
    {
      "constant": true,
      "inputs": [
        {
          "internalType": "address",
          "name": "",
          "type": "address"
        }
      ],
      "name": "isOwner",
      "outputs": [
        {
          "internalType": "bool",
          "name": "",
          "type": "bool"
        }
      ],
      "payable": false,
      "stateMutability": "view",
      "type": "function"
    },
    {
      "constant": true,
      "inputs": [
        {
          "internalType": "uint256",
          "name": "",
          "type": "uint256"
        }
      ],
      "name": "owners",
      "outputs": [
        {
          "internalType": "address",
          "name": "",
          "type": "address"
        }
      ],
      "payable": false,
      "stateMutability": "view",
      "type": "function"
    },
    {
      "constant": false,
      "inputs": [
        {
          "internalType": "address",
          "name": "owner",
          "type": "address"
        },
        {
          "internalType": "address",
          "name": "newOwner",
          "type": "address"
        }
      ],
      "name": "replaceOwner",
      "outputs": [],
      "payable": false,
      "stateMutability": "nonpayable",
      "type": "function"
    },
    {
      "constant": true,
      "inputs": [],
      "name": "required",
      "outputs": [
        {
          "internalType": "uint256",
          "name": "",
          "type": "uint256"
        }
      ],
      "payable": false,
      "stateMutability": "view",
      "type": "function"
    },
    {
      "constant": false,
      "inputs": [
        {
          "internalType": "uint256",
          "name": "transactionId",
          "type": "uint256"
        }
      ],
      "name": "revokeConfirmation",
      "outputs": [],
      "payable": false,
      "stateMutability": "nonpayable",
      "type": "function"
    },
    {
      "constant": true,
      "inputs": [
        {
          "internalType": "bytes32",
          "name": "",
          "type": "bytes32"
        }
      ],
      "name": "signedDataHashes",
      "outputs": [
        {
          "internalType": "bool",
          "name": "",
          "type": "bool"
        }
      ],
      "payable": false,
      "stateMutability": "view",
      "type": "function"
    },
    {
      "constant": false,
      "inputs": [
        {
          "internalType": "address",
          "name": "destination",
          "type": "address"
        },
        {
          "internalType": "uint256",
          "name": "value",
          "type": "uint256"
        },
        {
          "internalType": "bytes",
          "name": "data",
          "type": "bytes"
        }
      ],
      "name": "submitTransaction",
      "outputs": [
        {
          "internalType": "uint256",
          "name": "transactionId",
          "type": "uint256"
        }
      ],
      "payable": false,
      "stateMutability": "nonpayable",
      "type": "function"
    },
    {
      "constant": true,
      "inputs": [],
      "name": "transactionCount",
      "outputs": [
        {
          "internalType": "uint256",
          "name": "",
          "type": "uint256"
        }
      ],
      "payable": false,
      "stateMutability": "view",
      "type": "function"
    },
    {
      "constant": true,
      "inputs": [
        {
          "internalType": "uint256",
          "name": "",
          "type": "uint256"
        }
      ],
      "name": "transactions",
      "outputs": [
        {
          "internalType": "address",
          "name": "destination",
          "type": "address"
        },
        {
          "internalType": "uint256",
          "name": "value",
          "type": "uint256"
        },
        {
          "internalType": "bytes",
          "name": "data",
          "type": "bytes"
        },
        {
          "internalType": "bool",
          "name": "executed",
          "type": "bool"
        }
      ],
      "payable": false,
      "stateMutability": "view",
      "type": "function"
    },
    {
      "constant": false,
      "inputs": [
        {
          "internalType": "bytes",
          "name": "dataToSign",
          "type": "bytes"
        }
      ],
      "name": "signData",
      "outputs": [],
      "payable": false,
      "stateMutability": "nonpayable",
      "type": "function"
    },
    {
      "constant": true,
      "inputs": [
        {
          "internalType": "bytes",
          "name": "data",
          "type": "bytes"
        }
      ],
      "name": "isDataSigned",
      "outputs": [
        {
          "internalType": "bool",
          "name": "",
          "type": "bool"
        }
      ],
      "payable": false,
      "stateMutability": "view",
      "type": "function"
    },
    {
      "constant": false,
      "inputs": [
        {
          "internalType": "address",
          "name": "operator",
          "type": "address"
        },
        {
          "internalType": "address",
          "name": "from",
          "type": "address"
        },
        {
          "internalType": "uint256",
          "name": "tokenId",
          "type": "uint256"
        },
        {
          "internalType": "bytes",
          "name": "data",
          "type": "bytes"
        }
      ],
      "name": "onERC721Received",
      "outputs": [
        {
          "internalType": "bytes4",
          "name": "",
          "type": "bytes4"
        }
      ],
      "payable": false,
      "stateMutability": "nonpayable",
      "type": "function"
    },
    {
      "constant": false,
      "inputs": [
        {
          "internalType": "uint256",
          "name": "_required",
          "type": "uint256"
        }
      ],
      "name": "changeRequirement",
      "outputs": [],
      "payable": false,
      "stateMutability": "nonpayable",
      "type": "function"
    },
    {
      "constant": false,
      "inputs": [
        {
          "internalType": "uint256",
          "name": "transactionId",
          "type": "uint256"
        }
      ],
      "name": "executeTransaction",
      "outputs": [],
      "payable": false,
      "stateMutability": "nonpayable",
      "type": "function"
    },
    {
      "constant": false,
      "inputs": [
        {
          "internalType": "address",
          "name": "owner",
          "type": "address"
        }
      ],
      "name": "removeOwner",
      "outputs": [],
      "payable": false,
      "stateMutability": "nonpayable",
      "type": "function"
    }
  ],
  "bytecode": "0x60806040523480156200001157600080fd5b506040516200257438038062002574833981810160405260408110156200003757600080fd5b81019080805160405193929190846401000000008211156200005857600080fd5b9083019060208201858111156200006e57600080fd5b82518660208202830111640100000000821117156200008c57600080fd5b82525081516020918201928201910280838360005b83811015620000bb578181015183820152602001620000a1565b50505050919091016040525060200151835190925083915082908160648211801590620000e85750818111155b8015620000f457508015155b80156200010057508115155b6200016c57604080517f08c379a000000000000000000000000000000000000000000000000000000000815260206004820152601260248201527f5468726573686f6c6420696e2076616c69640000000000000000000000000000604482015290519081900360640190fd5b60005b8451811015620002a057600260008683815181106200018a57fe5b6020908102919091018101516001600160a01b031682528101919091526040016000205460ff16158015620001e6575060006001600160a01b0316858281518110620001d257fe5b60200260200101516001600160a01b031614155b6200025257604080517f08c379a000000000000000000000000000000000000000000000000000000000815260206004820152600d60248201527f496e76616c6964206f776e657200000000000000000000000000000000000000604482015290519081900360640190fd5b6001600260008784815181106200026557fe5b6020908102919091018101516001600160a01b03168252810191909152604001600020805460ff19169115159190911790556001016200016f565b508351620002b6906003906020870190620002c6565b505050600455506200035a915050565b8280548282559060005260206000209081019282156200031e579160200282015b828111156200031e57825182546001600160a01b0319166001600160a01b03909116178255602090920191600190910190620002e7565b506200032c92915062000330565b5090565b6200035791905b808211156200032c5780546001600160a01b031916815560010162000337565b90565b61220a806200036a6000396000f3fe6080604052600436106101965760003560e01c80639ace38c2116100e1578063c01a8c841161008a578063dc8452cd11610064578063dc8452cd1461088c578063e20056e6146108a1578063e44fe69f146108dc578063ee22610b1461098f57610196565b8063c01a8c8414610785578063c6427474146107af578063d74f8edd1461087757610196565b8063b5dc40c3116100bb578063b5dc40c31461071c578063b77bf60014610746578063ba51a6df1461075b57610196565b80639ace38c2146105aa578063a0e67e2b14610677578063a8abe69a146106dc57610196565b80633411c81c11610143578063784547a71161011d578063784547a7146104a35780638b51d13f146104cd578063971d3efa146104f757610196565b80633411c81c146103f1578063547415251461042a5780637065cb481461047057610196565b8063173825d911610174578063173825d91461036157806320ea8d86146103945780632f54bf6e146103be57610196565b8063025e7c27146101d55780630f449b451461021b578063150b7a0214610259575b34156101d35760408051348152905133917fe1fffcc4923d04b559f4d29a8bfc6cda04eb5b0d3c460751c2402c5c5cc9109c919081900360200190a25b005b3480156101e157600080fd5b506101ff600480360360208110156101f857600080fd5b50356109b9565b604080516001600160a01b039092168252519081900360200190f35b34801561022757600080fd5b506102456004803603602081101561023e57600080fd5b50356109e0565b604080519115158252519081900360200190f35b34801561026557600080fd5b5061032c6004803603608081101561027c57600080fd5b6001600160a01b038235811692602081013590911691604082013591908101906080810160608201356401000000008111156102b757600080fd5b8201836020820111156102c957600080fd5b803590602001918460018302840111640100000000831117156102eb57600080fd5b91908080601f0160208091040260200160405190810160405280939291908181526020018383808284376000920191909152509295506109f5945050505050565b604080517fffffffff000000000000000000000000000000000000000000000000000000009092168252519081900360200190f35b34801561036d57600080fd5b506101d36004803603602081101561038457600080fd5b50356001600160a01b0316610a1e565b3480156103a057600080fd5b506101d3600480360360208110156103b757600080fd5b5035610c52565b3480156103ca57600080fd5b50610245600480360360208110156103e157600080fd5b50356001600160a01b0316610de0565b3480156103fd57600080fd5b506102456004803603604081101561041457600080fd5b50803590602001356001600160a01b0316610df5565b34801561043657600080fd5b5061045e6004803603604081101561044d57600080fd5b508035151590602001351515610e15565b60408051918252519081900360200190f35b34801561047c57600080fd5b506101d36004803603602081101561049357600080fd5b50356001600160a01b0316610e81565b3480156104af57600080fd5b50610245600480360360208110156104c657600080fd5b50356110c2565b3480156104d957600080fd5b5061045e600480360360208110156104f057600080fd5b503561114d565b34801561050357600080fd5b506102456004803603602081101561051a57600080fd5b81019060208101813564010000000081111561053557600080fd5b82018360208201111561054757600080fd5b8035906020019184600183028401116401000000008311171561056957600080fd5b91908080601f0160208091040260200160405190810160405280939291908181526020018383808284376000920191909152509295506111bc945050505050565b3480156105b657600080fd5b506105d4600480360360208110156105cd57600080fd5b5035611264565b60405180856001600160a01b03166001600160a01b031681526020018481526020018060200183151515158152602001828103825284818151815260200191508051906020019080838360005b83811015610639578181015183820152602001610621565b50505050905090810190601f1680156106665780820380516001836020036101000a031916815260200191505b509550505050505060405180910390f35b34801561068357600080fd5b5061068c611322565b60408051602080825283518183015283519192839290830191858101910280838360005b838110156106c85781810151838201526020016106b0565b505050509050019250505060405180910390f35b3480156106e857600080fd5b5061068c600480360360808110156106ff57600080fd5b508035906020810135906040810135151590606001351515611385565b34801561072857600080fd5b5061068c6004803603602081101561073f57600080fd5b5035611506565b34801561075257600080fd5b5061045e61167d565b34801561076757600080fd5b506101d36004803603602081101561077e57600080fd5b5035611683565b34801561079157600080fd5b506101d3600480360360208110156107a857600080fd5b503561179a565b3480156107bb57600080fd5b5061045e600480360360608110156107d257600080fd5b6001600160a01b038235169160208101359181019060608101604082013564010000000081111561080257600080fd5b82018360208201111561081457600080fd5b8035906020019184600183028401116401000000008311171561083657600080fd5b91908080601f016020809104026020016040519081016040528093929190818152602001838380828437600092019190915250929550611939945050505050565b34801561088357600080fd5b5061045e6119be565b34801561089857600080fd5b5061045e6119c3565b3480156108ad57600080fd5b506101d3600480360360408110156108c457600080fd5b506001600160a01b03813581169160200135166119c9565b3480156108e857600080fd5b506101d3600480360360208110156108ff57600080fd5b81019060208101813564010000000081111561091a57600080fd5b82018360208201111561092c57600080fd5b8035906020019184600183028401116401000000008311171561094e57600080fd5b91908080601f016020809104026020016040519081016040528093929190818152602001838380828437600092019190915250929550611c1e945050505050565b34801561099b57600080fd5b506101d3600480360360208110156109b257600080fd5b5035611d22565b600381815481106109c657fe5b6000918252602090912001546001600160a01b0316905081565b60066020526000908152604090205460ff1681565b7f150b7a0200000000000000000000000000000000000000000000000000000000949350505050565b333014610a72576040805162461bcd60e51b815260206004820181905260248201527f4f6e6c79206d756c7469207369676e2077616c6c657420616c6c6f77616e6365604482015290519081900360640190fd5b6001600160a01b038116600090815260026020526040902054819060ff16610ae1576040805162461bcd60e51b815260206004820152601f60248201527f4f776e6572206f66207468652077616c6c6574206e6f74206578697374656400604482015290519081900360640190fd5b6001600160a01b0382166000908152600260205260408120805460ff191690555b60035460001901811015610bb557826001600160a01b031660038281548110610b2757fe5b6000918252602090912001546001600160a01b03161415610bad57600380546000198101908110610b5457fe5b600091825260209091200154600380546001600160a01b039092169183908110610b7a57fe5b9060005260206000200160006101000a8154816001600160a01b0302191690836001600160a01b03160217905550610bb5565b600101610b02565b50600380546000198101908110610bc857fe5b6000918252602090912001805473ffffffffffffffffffffffffffffffffffffffff19169055600380546000190190610c019082612119565b506003546004541115610c1a57600354610c1a90611683565b6040516001600160a01b038316907f8001553a916ef2f495d26a907cc54d96ed840d7bda71e73194bf5a9df7a76b9090600090a25050565b3360008181526002602052604090205460ff16610cb6576040805162461bcd60e51b815260206004820152601f60248201527f4f776e6572206f66207468652077616c6c6574206e6f74206578697374656400604482015290519081900360640190fd5b60008281526001602090815260408083203380855292529091205483919060ff16610d28576040805162461bcd60e51b815260206004820152601960248201527f5472616e73616374696f6e206e6f7420636f6e6669726d656400000000000000604482015290519081900360640190fd5b600084815260208190526040902060030154849060ff1615610d91576040805162461bcd60e51b815260206004820152601460248201527f5472616e73616374696f6e206578656375746564000000000000000000000000604482015290519081900360640190fd5b6000858152600160209081526040808320338085529252808320805460ff191690555187927ff6a317157440607f36269043eb55f1287a5a19ba2216afeab88cd46cbcfb88e991a35050505050565b60026020526000908152604090205460ff1681565b600160209081526000928352604080842090915290825290205460ff1681565b6000805b600554811015610e7a57838015610e42575060008181526020819052604090206003015460ff16155b80610e665750828015610e66575060008181526020819052604090206003015460ff165b15610e72576001820191505b600101610e19565b5092915050565b333014610ed5576040805162461bcd60e51b815260206004820181905260248201527f4f6e6c79206d756c7469207369676e2077616c6c657420616c6c6f77616e6365604482015290519081900360640190fd5b6001600160a01b038116600090815260026020526040902054819060ff1615610f45576040805162461bcd60e51b815260206004820152601b60248201527f4f776e6572206f66207468652077616c6c657420657869737465640000000000604482015290519081900360640190fd5b816001600160a01b038116610fa1576040805162461bcd60e51b815260206004820152601760248201527f416464726573732063616e206e6f74206265206e756c6c000000000000000000604482015290519081900360640190fd5b60038054905060010160045460648211158015610fbe5750818111155b8015610fc957508015155b8015610fd457508115155b611025576040805162461bcd60e51b815260206004820152601260248201527f5468726573686f6c6420696e2076616c69640000000000000000000000000000604482015290519081900360640190fd5b6001600160a01b038516600081815260026020526040808220805460ff1916600190811790915560038054918201815583527fc2575a0e9e593c00f959f8c92f12db2869c3395a3b0502d05e2516446f71f85b01805473ffffffffffffffffffffffffffffffffffffffff191684179055517ff39e6e1eb0edcf53c221607b54b00cd28f3196fed0a24994dc308b8f611b682d9190a25050505050565b600080805b60035481101561114157600084815260016020526040812060038054919291849081106110f057fe5b60009182526020808320909101546001600160a01b0316835282019290925260400190205460ff1615611124576001820191505b60045482141561113957600192505050611148565b6001016110c7565b5060009150505b919050565b6000805b6003548110156111b6576000838152600160205260408120600380549192918490811061117a57fe5b60009182526020808320909101546001600160a01b0316835282019290925260400190205460ff16156111ae576001820191505b600101611151565b50919050565b6000600660006002846040518082805190602001908083835b602083106111f45780518252601f1990920191602091820191016111d5565b51815160209384036101000a60001901801990921691161790526040519190930194509192505080830381855afa158015611233573d6000803e3d6000fd5b5050506040513d602081101561124857600080fd5b5051815260208101919091526040016000205460ff1692915050565b6000602081815291815260409081902080546001808301546002808501805487516101009582161595909502600019011691909104601f81018890048802840188019096528583526001600160a01b039093169590949192919083018282801561130f5780601f106112e45761010080835404028352916020019161130f565b820191906000526020600020905b8154815290600101906020018083116112f257829003601f168201915b5050506003909301549192505060ff1684565b6060600380548060200260200160405190810160405280929190818152602001828054801561137a57602002820191906000526020600020905b81546001600160a01b0316815260019091019060200180831161135c575b505050505090505b90565b6060838511156113dc576040805162461bcd60e51b815260206004820152601360248201527f496e76616c696420696e6465782076616c756500000000000000000000000000604482015290519081900360640190fd5b606060055460405190808252806020026020018201604052801561140a578160200160208202803883390190505b5090506000805b60055481101561148b5785801561143a575060008181526020819052604090206003015460ff16155b8061145e575084801561145e575060008181526020819052604090206003015460ff165b15611483578083838151811061147057fe5b6020026020010181815250506001820191505b600101611411565b8787036040519080825280602002602001820160405280156114b7578160200160208202803883390190505b5093508790505b868110156114fb578281815181106114d257fe5b602002602001015184898303815181106114e857fe5b60209081029190910101526001016114be565b505050949350505050565b606080600380549050604051908082528060200260200182016040528015611538578160200160208202803883390190505b5090506000805b6003548110156115fb576000858152600160205260408120600380549192918490811061156857fe5b60009182526020808320909101546001600160a01b0316835282019290925260400190205460ff16156115f357600381815481106115a257fe5b9060005260206000200160009054906101000a90046001600160a01b03168383815181106115cc57fe5b60200260200101906001600160a01b031690816001600160a01b0316815250506001820191505b60010161153f565b81604051908082528060200260200182016040528015611625578160200160208202803883390190505b509350600090505b818110156116755782818151811061164157fe5b602002602001015184828151811061165557fe5b6001600160a01b039092166020928302919091019091015260010161162d565b505050919050565b60055481565b3330146116d7576040805162461bcd60e51b815260206004820181905260248201527f4f6e6c79206d756c7469207369676e2077616c6c657420616c6c6f77616e6365604482015290519081900360640190fd5b60035481606482118015906116ec5750818111155b80156116f757508015155b801561170257508115155b611753576040805162461bcd60e51b815260206004820152601260248201527f5468726573686f6c6420696e2076616c69640000000000000000000000000000604482015290519081900360640190fd5b82600454146117955760048390556040805184815290517fa3f1ee9126a074d9326c682f561767f710e927faa811f7a99829d49dc421797a9181900360200190a15b505050565b3360008181526002602052604090205460ff166117fe576040805162461bcd60e51b815260206004820152601f60248201527f4f776e6572206f66207468652077616c6c6574206e6f74206578697374656400604482015290519081900360640190fd5b60008281526020819052604090205482906001600160a01b0316611869576040805162461bcd60e51b815260206004820152601760248201527f5472616e73616374696f6e206e6f742065786973746564000000000000000000604482015290519081900360640190fd5b60008381526001602090815260408083203380855292529091205484919060ff16156118dc576040805162461bcd60e51b815260206004820152601560248201527f5472616e73616374696f6e20636f6e6669726d65640000000000000000000000604482015290519081900360640190fd5b6000858152600160208181526040808420338086529252808420805460ff1916909317909255905187927f4a504a94899432a9846e1aa406dceb1bcfd538bb839071d49d1e5e23f5be30ef91a361193285611d22565b5050505050565b3360008181526002602052604081205490919060ff166119a0576040805162461bcd60e51b815260206004820152601f60248201527f4f776e6572206f66207468652077616c6c6574206e6f74206578697374656400604482015290519081900360640190fd5b6119ab858585611fc0565b91506119b68261179a565b509392505050565b606481565b60045481565b333014611a1d576040805162461bcd60e51b815260206004820181905260248201527f4f6e6c79206d756c7469207369676e2077616c6c657420616c6c6f77616e6365604482015290519081900360640190fd5b6001600160a01b038216600090815260026020526040902054829060ff16611a8c576040805162461bcd60e51b815260206004820152601f60248201527f4f776e6572206f66207468652077616c6c6574206e6f74206578697374656400604482015290519081900360640190fd5b6001600160a01b038216600090815260026020526040902054829060ff1615611afc576040805162461bcd60e51b815260206004820152601b60248201527f4f776e6572206f66207468652077616c6c657420657869737465640000000000604482015290519081900360640190fd5b60005b600354811015611b8457846001600160a01b031660038281548110611b2057fe5b6000918252602090912001546001600160a01b03161415611b7c578360038281548110611b4957fe5b9060005260206000200160006101000a8154816001600160a01b0302191690836001600160a01b03160217905550611b84565b600101611aff565b506001600160a01b03808516600081815260026020526040808220805460ff1990811690915593871682528082208054909416600117909355915190917f8001553a916ef2f495d26a907cc54d96ed840d7bda71e73194bf5a9df7a76b9091a26040516001600160a01b038416907ff39e6e1eb0edcf53c221607b54b00cd28f3196fed0a24994dc308b8f611b682d90600090a250505050565b333014611c72576040805162461bcd60e51b815260206004820181905260248201527f4f6e6c79206d756c7469207369676e2077616c6c657420616c6c6f77616e6365604482015290519081900360640190fd5b6001600660006002846040518082805190602001908083835b60208310611caa5780518252601f199092019160209182019101611c8b565b51815160209384036101000a60001901801990921691161790526040519190930194509192505080830381855afa158015611ce9573d6000803e3d6000fd5b5050506040513d6020811015611cfe57600080fd5b505181526020810191909152604001600020805460ff191691151591909117905550565b3360008181526002602052604090205460ff16611d86576040805162461bcd60e51b815260206004820152601f60248201527f4f776e6572206f66207468652077616c6c6574206e6f74206578697374656400604482015290519081900360640190fd5b60008281526001602090815260408083203380855292529091205483919060ff16611df8576040805162461bcd60e51b815260206004820152601960248201527f5472616e73616374696f6e206e6f7420636f6e6669726d656400000000000000604482015290519081900360640190fd5b600084815260208190526040902060030154849060ff1615611e61576040805162461bcd60e51b815260206004820152601460248201527f5472616e73616374696f6e206578656375746564000000000000000000000000604482015290519081900360640190fd5b611e6a856110c2565b15611932576000858152602081815260409182902060038101805460ff19166001908117909155815481830154600280850180548851601f600019978316156101000297909701909116929092049485018790048702820187019097528381529395611f3c956001600160a01b03909316949193928390830182828015611f325780601f10611f0757610100808354040283529160200191611f32565b820191906000526020600020905b815481529060010190602001808311611f1557829003601f168201915b50505050506120f6565b611f8d576040805162461bcd60e51b815260206004820152601a60248201527f45786563757465207472616e73616374696f6e206661696c6564000000000000604482015290519081900360640190fd5b60405186907f33e13ecb54c3076d8e8bb8c2881800a4d972b792045ffae98fdf46df365fed7590600090a2505050505050565b6000836001600160a01b03811661201e576040805162461bcd60e51b815260206004820152601760248201527f416464726573732063616e206e6f74206265206e756c6c000000000000000000604482015290519081900360640190fd5b600554604080516080810182526001600160a01b0388811682526020808301898152838501898152600060608601819052878152808452959095208451815473ffffffffffffffffffffffffffffffffffffffff19169416939093178355516001830155925180519496509193909261209e92600285019291019061213d565b50606091909101516003909101805460ff191691151591909117905560058054600101905560405182907fc0ba8fe4b176c1714197d43b9cc6bcf797a4a7461c5fe8d0ef6e184ae7601e5190600090a2509392505050565b6000806040516020840160008287838a8c6187965a03f198975050505050505050565b815481835581811115611795576000838152602090206117959181019083016121bb565b828054600181600116156101000203166002900490600052602060002090601f016020900481019282601f1061217e57805160ff19168380011785556121ab565b828001600101855582156121ab579182015b828111156121ab578251825591602001919060010190612190565b506121b79291506121bb565b5090565b61138291905b808211156121b757600081556001016121c156fea265627a7a72315820a691d903169631879a82fe8fdeda9260ac4b22b90c7ba5baebda730c0466de1364736f6c634300050d0032",
  "source": "pragma solidity ^0.5.10;\n\nimport './MultiSigWallet.sol';\nimport '../standards/ERC721/IERC721Receiver.sol';\n\ncontract UntangledMultiSignatureWallet is MultiSigWallet, IERC721Receiver {\n    mapping(bytes32 => bool) public signedDataHashes;\n\n    constructor(address[] memory _owners, uint256 _required) public MultiSigWallet(_owners, _required) {}\n\n    // For verify VRS signature: contract can call to.isContract() to check and call method isDataSigned() to verify signature\n    function signData(bytes memory dataToSign) public onlyWallet {\n        signedDataHashes[sha256(dataToSign)] = true;\n    }\n\n    function isDataSigned(bytes memory data) public view returns (bool) {\n        return signedDataHashes[sha256(data)];\n    }\n\n    function onERC721Received(\n        address operator,\n        address from,\n        uint256 tokenId,\n        bytes memory data\n    ) public returns (bytes4) {\n        return this.onERC721Received.selector;\n    }\n\n    /// @dev Allows to change the number of required confirmations. Transaction has to be sent by wallet.\n    /// @param _required Number of required confirmations.\n    function changeRequirement(uint256 _required) public onlyWallet validRequirement(owners.length, _required) {\n        if (required != _required) {\n            required = _required;\n            emit RequirementChange(_required);\n        }\n    }\n\n    /// @dev Allows anyone to execute a confirmed transaction.\n    /// @param transactionId Transaction ID.\n    // Note: The low level operations never throw exceptions but indicate failures by returning false\n    function executeTransaction(uint256 transactionId)\n        public\n        ownerExists(msg.sender)\n        confirmed(transactionId, msg.sender)\n        notExecuted(transactionId)\n    {\n        if (isConfirmed(transactionId)) {\n            Transaction storage txn = transactions[transactionId];\n            txn.executed = true;\n\n            require(external_call(txn.destination, txn.value, txn.data.length, txn.data), 'Execute transaction failed');\n            emit Execution(transactionId);\n        }\n    }\n\n    /// @dev Allows to remove an owner. Transaction has to be sent by wallet.\n    /// @param owner Address of owner.\n    function removeOwner(address owner) public onlyWallet ownerExists(owner) {\n        isOwner[owner] = false;\n        for (uint256 i = 0; i < owners.length - 1; i++)\n            if (owners[i] == owner) {\n                owners[i] = owners[owners.length - 1];\n                break;\n            }\n        delete owners[owners.length - 1];\n        owners.length -= 1;\n        if (required > owners.length) changeRequirement(owners.length);\n        emit OwnerRemoval(owner);\n    }\n}\n",
  "sourcePath": "/Users/teddynguyen/works/bi_nkabi/untangled/untangled-securitization-smart-contracts/contracts/wallet/UntangledMultiSignatureWallet.sol",
  "compiler": {
    "name": "solc",
    "version": "0.5.13+commit.5b0b510c.Emscripten.clang"
  },
  "schemaVersion": "3.2.3",
  "updatedAt": "2022-01-17T09:37:35.207Z",
  "devdoc": {
    "methods": {
      "addOwner(address)": {
        "details": "Allows to add a new owner. Transaction has to be sent by wallet.",
        "params": {
          "owner": "Address of new owner."
        }
      },
      "changeRequirement(uint256)": {
        "details": "Allows to change the number of required confirmations. Transaction has to be sent by wallet.",
        "params": {
          "_required": "Number of required confirmations."
        }
      },
      "confirmTransaction(uint256)": {
        "details": "Allows an owner to confirm a transaction.",
        "params": {
          "transactionId": "Transaction ID."
        }
      },
      "executeTransaction(uint256)": {
        "details": "Allows anyone to execute a confirmed transaction.",
        "params": {
          "transactionId": "Transaction ID."
        }
      },
      "getConfirmationCount(uint256)": {
        "details": "Returns number of confirmations of a transaction.",
        "params": {
          "transactionId": "Transaction ID."
        },
        "return": "Number of confirmations."
      },
      "getConfirmations(uint256)": {
        "details": "Returns array with owner addresses, which confirmed transaction.",
        "params": {
          "transactionId": "Transaction ID."
        },
        "return": "Returns array of owner addresses."
      },
      "getOwners()": {
        "details": "Returns list of owners.",
        "return": "List of owner addresses."
      },
      "getTransactionCount(bool,bool)": {
        "details": "Returns total number of transactions after filers are applied.",
        "params": {
          "executed": "Include executed transactions.",
          "pending": "Include pending transactions."
        },
        "return": "Total number of transactions after filters are applied."
      },
      "getTransactionIds(uint256,uint256,bool,bool)": {
        "details": "Returns list of transaction IDs in defined range.",
        "params": {
          "executed": "Include executed transactions.",
          "from": "Index start position of transaction array.",
          "pending": "Include pending transactions.",
          "to": "Index end position of transaction array."
        },
        "return": "Returns array of transaction IDs."
      },
      "isConfirmed(uint256)": {
        "details": "Returns the confirmation status of a transaction.",
        "params": {
          "transactionId": "Transaction ID."
        },
        "return": "Confirmation status."
      },
      "removeOwner(address)": {
        "details": "Allows to remove an owner. Transaction has to be sent by wallet.",
        "params": {
          "owner": "Address of owner."
        }
      },
      "replaceOwner(address,address)": {
        "details": "Allows to replace an owner with a new owner. Transaction has to be sent by wallet.",
        "params": {
          "newOwner": "Address of new owner.",
          "owner": "Address of owner to be replaced."
        }
      },
      "revokeConfirmation(uint256)": {
        "details": "Allows an owner to revoke a confirmation for a transaction.",
        "params": {
          "transactionId": "Transaction ID."
        }
      },
      "submitTransaction(address,uint256,bytes)": {
        "details": "Allows an owner to submit and confirm a transaction.",
        "params": {
          "data": "Transaction data payload.",
          "destination": "Transaction target address.",
          "value": "Transaction ether value."
        },
        "return": "Returns transaction ID."
      }
    }
  },
  "userdoc": {
    "methods": {}
  }
}