{
  "address": "0xb19BC0a4bDa3D6F5C266c866b1C88622B5016f94",
  "abi": [
    {
      "anonymous": false,
      "inputs": [
        {
          "indexed": false,
          "internalType": "uint8",
          "name": "version",
          "type": "uint8"
        }
      ],
      "name": "Initialized",
      "type": "event"
    },
    {
      "anonymous": false,
      "inputs": [
        {
          "indexed": false,
          "internalType": "address",
          "name": "account",
          "type": "address"
        }
      ],
      "name": "Paused",
      "type": "event"
    },
    {
      "anonymous": false,
      "inputs": [
        {
          "indexed": true,
          "internalType": "bytes32",
          "name": "role",
          "type": "bytes32"
        },
        {
          "indexed": true,
          "internalType": "bytes32",
          "name": "previousAdminRole",
          "type": "bytes32"
        },
        {
          "indexed": true,
          "internalType": "bytes32",
          "name": "newAdminRole",
          "type": "bytes32"
        }
      ],
      "name": "RoleAdminChanged",
      "type": "event"
    },
    {
      "anonymous": false,
      "inputs": [
        {
          "indexed": true,
          "internalType": "bytes32",
          "name": "role",
          "type": "bytes32"
        },
        {
          "indexed": true,
          "internalType": "address",
          "name": "account",
          "type": "address"
        },
        {
          "indexed": true,
          "internalType": "address",
          "name": "sender",
          "type": "address"
        }
      ],
      "name": "RoleGranted",
      "type": "event"
    },
    {
      "anonymous": false,
      "inputs": [
        {
          "indexed": true,
          "internalType": "bytes32",
          "name": "role",
          "type": "bytes32"
        },
        {
          "indexed": true,
          "internalType": "address",
          "name": "account",
          "type": "address"
        },
        {
          "indexed": true,
          "internalType": "address",
          "name": "sender",
          "type": "address"
        }
      ],
      "name": "RoleRevoked",
      "type": "event"
    },
    {
      "anonymous": false,
      "inputs": [
        {
          "indexed": false,
          "internalType": "address",
          "name": "account",
          "type": "address"
        }
      ],
      "name": "Unpaused",
      "type": "event"
    },
    {
      "inputs": [],
      "name": "DAY_LENGTH_IN_SECONDS",
      "outputs": [
        {
          "internalType": "uint256",
          "name": "",
          "type": "uint256"
        }
      ],
      "stateMutability": "view",
      "type": "function"
    },
    {
      "inputs": [],
      "name": "DEFAULT_ADMIN_ROLE",
      "outputs": [
        {
          "internalType": "bytes32",
          "name": "",
          "type": "bytes32"
        }
      ],
      "stateMutability": "view",
      "type": "function"
    },
    {
      "inputs": [],
      "name": "HOUR_LENGTH_IN_SECONDS",
      "outputs": [
        {
          "internalType": "uint256",
          "name": "",
          "type": "uint256"
        }
      ],
      "stateMutability": "view",
      "type": "function"
    },
    {
      "inputs": [],
      "name": "INTEREST_RATE_SCALING_FACTOR_MULTIPLIER",
      "outputs": [
        {
          "internalType": "uint256",
          "name": "",
          "type": "uint256"
        }
      ],
      "stateMutability": "view",
      "type": "function"
    },
    {
      "inputs": [],
      "name": "INTEREST_RATE_SCALING_FACTOR_PERCENT",
      "outputs": [
        {
          "internalType": "uint256",
          "name": "",
          "type": "uint256"
        }
      ],
      "stateMutability": "view",
      "type": "function"
    },
    {
      "inputs": [],
      "name": "MINUTE_LENGTH_IN_SECONDS",
      "outputs": [
        {
          "internalType": "uint256",
          "name": "",
          "type": "uint256"
        }
      ],
      "stateMutability": "view",
      "type": "function"
    },
    {
      "inputs": [],
      "name": "OWNER_ROLE",
      "outputs": [
        {
          "internalType": "bytes32",
          "name": "",
          "type": "bytes32"
        }
      ],
      "stateMutability": "view",
      "type": "function"
    },
    {
      "inputs": [],
      "name": "YEAR_LENGTH_IN_DAYS",
      "outputs": [
        {
          "internalType": "uint256",
          "name": "",
          "type": "uint256"
        }
      ],
      "stateMutability": "view",
      "type": "function"
    },
    {
      "inputs": [],
      "name": "YEAR_LENGTH_IN_SECONDS",
      "outputs": [
        {
          "internalType": "uint256",
          "name": "",
          "type": "uint256"
        }
      ],
      "stateMutability": "view",
      "type": "function"
    },
    {
      "inputs": [
        {
          "internalType": "address",
          "name": "tokenAddress",
          "type": "address"
        },
        {
          "internalType": "address",
          "name": "investor",
          "type": "address"
        }
      ],
      "name": "calcCorrespondingAssetValue",
      "outputs": [
        {
          "internalType": "uint256",
          "name": "",
          "type": "uint256"
        }
      ],
      "stateMutability": "view",
      "type": "function"
    },
    {
      "inputs": [
        {
          "internalType": "address",
          "name": "tokenAddress",
          "type": "address"
        },
        {
          "internalType": "address[]",
          "name": "investors",
          "type": "address[]"
        }
      ],
      "name": "calcCorrespondingAssetValue",
      "outputs": [
        {
          "internalType": "uint256[]",
          "name": "values",
          "type": "uint256[]"
        }
      ],
      "stateMutability": "view",
      "type": "function"
    },
    {
      "inputs": [
        {
          "internalType": "address",
          "name": "tokenAddress",
          "type": "address"
        },
        {
          "internalType": "address",
          "name": "investor",
          "type": "address"
        }
      ],
      "name": "calcCorrespondingTotalAssetValue",
      "outputs": [
        {
          "internalType": "uint256",
          "name": "",
          "type": "uint256"
        }
      ],
      "stateMutability": "view",
      "type": "function"
    },
    {
      "inputs": [
        {
          "internalType": "address",
          "name": "pool",
          "type": "address"
        },
        {
          "internalType": "address",
          "name": "tokenAddress",
          "type": "address"
        }
      ],
      "name": "calcTokenPrice",
      "outputs": [
        {
          "internalType": "uint256",
          "name": "",
          "type": "uint256"
        }
      ],
      "stateMutability": "view",
      "type": "function"
    },
    {
      "inputs": [
        {
          "internalType": "uint256",
          "name": "principalAmount",
          "type": "uint256"
        },
        {
          "internalType": "uint256",
          "name": "annualInterestRate",
          "type": "uint256"
        },
        {
          "internalType": "uint256",
          "name": "startTermTimestamp",
          "type": "uint256"
        },
        {
          "internalType": "uint256",
          "name": "timestamp",
          "type": "uint256"
        }
      ],
      "name": "chargeInterest",
      "outputs": [
        {
          "internalType": "uint256",
          "name": "",
          "type": "uint256"
        }
      ],
      "stateMutability": "pure",
      "type": "function"
    },
    {
      "inputs": [
        {
          "internalType": "uint256",
          "name": "_currentPrincipalAmount",
          "type": "uint256"
        },
        {
          "internalType": "uint256",
          "name": "_annualInterestRate",
          "type": "uint256"
        },
        {
          "internalType": "uint256",
          "name": "_startTermTimestamp",
          "type": "uint256"
        },
        {
          "internalType": "uint256",
          "name": "_timestamp",
          "type": "uint256"
        }
      ],
      "name": "chargeLendingInterest",
      "outputs": [
        {
          "internalType": "uint256",
          "name": "",
          "type": "uint256"
        }
      ],
      "stateMutability": "pure",
      "type": "function"
    },
    {
      "inputs": [
        {
          "internalType": "address",
          "name": "pool",
          "type": "address"
        }
      ],
      "name": "getCashBalance",
      "outputs": [
        {
          "internalType": "uint256",
          "name": "",
          "type": "uint256"
        }
      ],
      "stateMutability": "view",
      "type": "function"
    },
    {
      "inputs": [
        {
          "internalType": "contract ISecuritizationPool",
          "name": "securitizationPool",
          "type": "address"
        }
      ],
      "name": "getJOTTokenPrice",
      "outputs": [
        {
          "internalType": "uint256",
          "name": "",
          "type": "uint256"
        }
      ],
      "stateMutability": "view",
      "type": "function"
    },
    {
      "inputs": [
        {
          "internalType": "bytes32",
          "name": "role",
          "type": "bytes32"
        }
      ],
      "name": "getRoleAdmin",
      "outputs": [
        {
          "internalType": "bytes32",
          "name": "",
          "type": "bytes32"
        }
      ],
      "stateMutability": "view",
      "type": "function"
    },
    {
      "inputs": [
        {
          "internalType": "bytes32",
          "name": "role",
          "type": "bytes32"
        },
        {
          "internalType": "uint256",
          "name": "index",
          "type": "uint256"
        }
      ],
      "name": "getRoleMember",
      "outputs": [
        {
          "internalType": "address",
          "name": "",
          "type": "address"
        }
      ],
      "stateMutability": "view",
      "type": "function"
    },
    {
      "inputs": [
        {
          "internalType": "bytes32",
          "name": "role",
          "type": "bytes32"
        }
      ],
      "name": "getRoleMemberCount",
      "outputs": [
        {
          "internalType": "uint256",
          "name": "",
          "type": "uint256"
        }
      ],
      "stateMutability": "view",
      "type": "function"
    },
    {
      "inputs": [
        {
          "internalType": "address",
          "name": "pool",
          "type": "address"
        }
      ],
      "name": "getSOTTokenPrice",
      "outputs": [
        {
          "internalType": "uint256",
          "name": "",
          "type": "uint256"
        }
      ],
      "stateMutability": "view",
      "type": "function"
    },
    {
      "inputs": [
        {
          "internalType": "bytes32",
          "name": "role",
          "type": "bytes32"
        },
        {
          "internalType": "address",
          "name": "account",
          "type": "address"
        }
      ],
      "name": "grantRole",
      "outputs": [],
      "stateMutability": "nonpayable",
      "type": "function"
    },
    {
      "inputs": [
        {
          "internalType": "bytes32",
          "name": "role",
          "type": "bytes32"
        },
        {
          "internalType": "address",
          "name": "account",
          "type": "address"
        }
      ],
      "name": "hasRole",
      "outputs": [
        {
          "internalType": "bool",
          "name": "",
          "type": "bool"
        }
      ],
      "stateMutability": "view",
      "type": "function"
    },
    {
      "inputs": [
        {
          "internalType": "contract Registry",
          "name": "_registry",
          "type": "address"
        }
      ],
      "name": "initialize",
      "outputs": [],
      "stateMutability": "nonpayable",
      "type": "function"
    },
    {
      "inputs": [],
      "name": "pause",
      "outputs": [],
      "stateMutability": "nonpayable",
      "type": "function"
    },
    {
      "inputs": [],
      "name": "paused",
      "outputs": [
        {
          "internalType": "bool",
          "name": "",
          "type": "bool"
        }
      ],
      "stateMutability": "view",
      "type": "function"
    },
    {
      "inputs": [],
      "name": "registry",
      "outputs": [
        {
          "internalType": "contract Registry",
          "name": "",
          "type": "address"
        }
      ],
      "stateMutability": "view",
      "type": "function"
    },
    {
      "inputs": [
        {
          "internalType": "bytes32",
          "name": "role",
          "type": "bytes32"
        },
        {
          "internalType": "address",
          "name": "account",
          "type": "address"
        }
      ],
      "name": "renounceRole",
      "outputs": [],
      "stateMutability": "nonpayable",
      "type": "function"
    },
    {
      "inputs": [
        {
          "internalType": "bytes32",
          "name": "role",
          "type": "bytes32"
        },
        {
          "internalType": "address",
          "name": "account",
          "type": "address"
        }
      ],
      "name": "revokeRole",
      "outputs": [],
      "stateMutability": "nonpayable",
      "type": "function"
    },
    {
      "inputs": [
        {
          "internalType": "bytes4",
          "name": "interfaceId",
          "type": "bytes4"
        }
      ],
      "name": "supportsInterface",
      "outputs": [
        {
          "internalType": "bool",
          "name": "",
          "type": "bool"
        }
      ],
      "stateMutability": "view",
      "type": "function"
    },
    {
      "inputs": [],
      "name": "unpause",
      "outputs": [],
      "stateMutability": "nonpayable",
      "type": "function"
    }
  ],
  "transactionHash": "0x1b4feabc86d213f8e4e3630844267027d4e42a82257c4f2c7b9970ef39ad5993",
  "args": [],
  "numDeployments": 8,
  "solcInputHash": "5ea27a62470edc79d2937832cf9e5a3e",
  "bytecode": "0x608060405234801561001057600080fd5b506130c4806100206000396000f3fe608060405234801561001057600080fd5b50600436106101e55760003560e01c80638456cb591161010f578063bd0c8502116100a2578063dc94942511610071578063dc94942514610228578063de53a13c14610422578063e58378bb1461042a578063fd127a411461045157600080fd5b8063bd0c8502146103d6578063c4d66de8146103e9578063ca15c873146103fc578063d547741f1461040f57600080fd5b806393529cdf116100de57806393529cdf1461039c578063a217fddf146103a5578063a70336cc146103ad578063ab15de52146103cd57600080fd5b80638456cb591461033b57806386e43aa3146102a15780639010d07c1461034357806391d148541461035657600080fd5b806336568abe1161018757806362fac5fc1161015657806362fac5fc146102c75780636f69c96f146102da5780637b103999146102e25780637f26468d1461032857600080fd5b806336568abe1461028e5780633d8da9b6146102a15780633f4ba83a146102b45780635c975abb146102bc57600080fd5b80632416f5d1116101c35780632416f5d11461023b578063248a9ca31461024e57806327f6ad99146102715780632f2ff15d1461027957600080fd5b806301ffc9a7146101ea5780630776298214610212578063214b05ef14610228575b600080fd5b6101fd6101f83660046129f0565b610459565b60405190151581526020015b60405180910390f35b61021a6104b5565b604051908152602001610209565b61021a610236366004612a32565b6104ce565b61021a610249366004612a86565b6104e7565b61021a61025c366004612aa3565b600090815260c9602052604090206001015490565b61021a603c81565b61028c610287366004612abc565b6106f3565b005b61028c61029c366004612abc565b61071d565b61021a6102af366004612aec565b6107d5565b61028c6107e1565b60335460ff166101fd565b61021a6102d5366004612a86565b6107f7565b61021a610d00565b61012d546103039073ffffffffffffffffffffffffffffffffffffffff1681565b60405173ffffffffffffffffffffffffffffffffffffffff9091168152602001610209565b61021a610336366004612aec565b610d0b565b61028c610e77565b610303610351366004612b1a565b610e8a565b6101fd610364366004612abc565b600091825260c96020908152604080842073ffffffffffffffffffffffffffffffffffffffff93909316845291905290205460ff1690565b61021a61271081565b61021a600081565b6103c06103bb366004612b3c565b610ea2565b6040516102099190612bc4565b61021a61016d81565b61021a6103e4366004612a86565b610f5d565b61028c6103f7366004612a86565b6113f1565b61021a61040a366004612aa3565b6115c5565b61028c61041d366004612abc565b6115dc565b61021a611601565b61021a7fb19546dff01e856fb3f010c267a7b1c60363cf8a4664e21cc89c26224620214e81565b61021a61160e565b60007fffffffff0000000000000000000000000000000000000000000000000000000082167f5a05180f0000000000000000000000000000000000000000000000000000000014806104af57506104af82611631565b92915050565b6104c0603c80612c37565b6104cb906018612c37565b81565b60006104dc858585856116c8565b90505b949350505050565b6000808290508073ffffffffffffffffffffffffffffffffffffffff16637dfbdae26040518163ffffffff1660e01b8152600401602060405180830381865afa158015610538573d6000803e3d6000fd5b505050506040513d601f19601f8201168201806040525081019061055c9190612c74565b8173ffffffffffffffffffffffffffffffffffffffff16630bc6bffc6040518163ffffffff1660e01b8152600401602060405180830381865afa1580156105a7573d6000803e3d6000fd5b505050506040513d601f19601f820116820180604052508101906105cb9190612c8d565b73ffffffffffffffffffffffffffffffffffffffff166370a082318373ffffffffffffffffffffffffffffffffffffffff16634ba2363a6040518163ffffffff1660e01b8152600401602060405180830381865afa158015610631573d6000803e3d6000fd5b505050506040513d601f19601f820116820180604052508101906106559190612c8d565b6040517fffffffff0000000000000000000000000000000000000000000000000000000060e084901b16815273ffffffffffffffffffffffffffffffffffffffff9091166004820152602401602060405180830381865afa1580156106be573d6000803e3d6000fd5b505050506040513d601f19601f820116820180604052508101906106e29190612c74565b6106ec9190612caa565b9392505050565b600082815260c9602052604090206001015461070e816116f2565b61071883836116fc565b505050565b73ffffffffffffffffffffffffffffffffffffffff811633146107c7576040517f08c379a000000000000000000000000000000000000000000000000000000000815260206004820152602f60248201527f416363657373436f6e74726f6c3a2063616e206f6e6c792072656e6f756e636560448201527f20726f6c657320666f722073656c66000000000000000000000000000000000060648201526084015b60405180910390fd5b6107d1828261171e565b5050565b60006106ec8383611740565b60006107ec816116f2565b6107f4611b6c565b50565b600073ffffffffffffffffffffffffffffffffffffffff821661089c576040517f08c379a000000000000000000000000000000000000000000000000000000000815260206004820152602a60248201527f446973747269627574696f6e4173736573736f723a20496e76616c696420706f60448201527f6f6c20616464726573730000000000000000000000000000000000000000000060648201526084016107be565b600082905060008173ffffffffffffffffffffffffffffffffffffffff1663febd60186040518163ffffffff1660e01b8152600401602060405180830381865afa1580156108ee573d6000803e3d6000fd5b505050506040513d601f19601f820116820180604052508101906109129190612c8d565b905060008173ffffffffffffffffffffffffffffffffffffffff166318160ddd6040518163ffffffff1660e01b8152600401602060405180830381865afa158015610961573d6000803e3d6000fd5b505050506040513d601f19601f820116820180604052508101906109859190612c74565b905060008273ffffffffffffffffffffffffffffffffffffffff1663313ce5676040518163ffffffff1660e01b8152600401602060405180830381865afa1580156109d4573d6000803e3d6000fd5b505050506040513d601f19601f820116820180604052508101906109f89190612cc1565b60ff16905073ffffffffffffffffffffffffffffffffffffffff8316610aa0576040517f08c379a000000000000000000000000000000000000000000000000000000000815260206004820152603060248201527f446973747269627574696f6e4173736573736f723a20496e76616c6964206e6f60448201527f746520746f6b656e20616464726573730000000000000000000000000000000060648201526084016107be565b8273ffffffffffffffffffffffffffffffffffffffff166318160ddd6040518163ffffffff1660e01b8152600401602060405180830381865afa158015610aeb573d6000803e3d6000fd5b505050506040513d601f19601f82011682018060405250810190610b0f9190612c74565b600003610c1657808473ffffffffffffffffffffffffffffffffffffffff16630bc6bffc6040518163ffffffff1660e01b8152600401602060405180830381865afa158015610b62573d6000803e3d6000fd5b505050506040513d601f19601f82011682018060405250810190610b869190612c8d565b73ffffffffffffffffffffffffffffffffffffffff1663313ce5676040518163ffffffff1660e01b8152600401602060405180830381865afa158015610bd0573d6000803e3d6000fd5b505050506040513d601f19601f82011682018060405250810190610bf49190612cc1565b60ff16610c019190612caa565b610c0c90600a612e04565b9695505050505050565b61012d54600090610c3c9073ffffffffffffffffffffffffffffffffffffffff16611be9565b6040517fc780d90600000000000000000000000000000000000000000000000000000000815273ffffffffffffffffffffffffffffffffffffffff898116600483015291925060009183169063c780d90690602401602060405180830381865afa158015610cae573d6000803e3d6000fd5b505050506040513d601f19601f82011682018060405250810190610cd29190612c74565b905083610ce084600a612e04565b610cea9083612c37565b610cf49190612e10565b98975050505050505050565b6104cb603c80612c37565b6000808390508073ffffffffffffffffffffffffffffffffffffffff1663febd60186040518163ffffffff1660e01b8152600401602060405180830381865afa158015610d5c573d6000803e3d6000fd5b505050506040513d601f19601f82011682018060405250810190610d809190612c8d565b73ffffffffffffffffffffffffffffffffffffffff168373ffffffffffffffffffffffffffffffffffffffff1603610dc357610dbb816107f7565b9150506104af565b8073ffffffffffffffffffffffffffffffffffffffff16632b71b4506040518163ffffffff1660e01b8152600401602060405180830381865afa158015610e0e573d6000803e3d6000fd5b505050506040513d601f19601f82011682018060405250810190610e329190612c8d565b73ffffffffffffffffffffffffffffffffffffffff168373ffffffffffffffffffffffffffffffffffffffff1603610e6d57610dbb81610f5d565b5060009392505050565b6000610e82816116f2565b6107f4611bf6565b600082815260fb602052604081206106ec9083611c51565b6060818067ffffffffffffffff811115610ebe57610ebe612e4b565b604051908082528060200260200182016040528015610ee7578160200160208202803683370190505b50915060005b81811015610f5457610f2586868684818110610f0b57610f0b612e7a565b9050602002016020810190610f209190612a86565b611740565b838281518110610f3757610f37612e7a565b602090810291909101015280610f4c81612ea9565b915050610eed565b50509392505050565b600073ffffffffffffffffffffffffffffffffffffffff8216611002576040517f08c379a000000000000000000000000000000000000000000000000000000000815260206004820152602a60248201527f446973747269627574696f6e4173736573736f723a20496e76616c696420706f60448201527f6f6c20616464726573730000000000000000000000000000000000000000000060648201526084016107be565b60008273ffffffffffffffffffffffffffffffffffffffff16632b71b4506040518163ffffffff1660e01b8152600401602060405180830381865afa15801561104f573d6000803e3d6000fd5b505050506040513d601f19601f820116820180604052508101906110739190612c8d565b905060008173ffffffffffffffffffffffffffffffffffffffff166318160ddd6040518163ffffffff1660e01b8152600401602060405180830381865afa1580156110c2573d6000803e3d6000fd5b505050506040513d601f19601f820116820180604052508101906110e69190612c74565b905060008273ffffffffffffffffffffffffffffffffffffffff1663313ce5676040518163ffffffff1660e01b8152600401602060405180830381865afa158015611135573d6000803e3d6000fd5b505050506040513d601f19601f820116820180604052508101906111599190612cc1565b60ff16905073ffffffffffffffffffffffffffffffffffffffff8316611201576040517f08c379a000000000000000000000000000000000000000000000000000000000815260206004820152603060248201527f446973747269627574696f6e4173736573736f723a20496e76616c6964206e6f60448201527f746520746f6b656e20616464726573730000000000000000000000000000000060648201526084016107be565b8160000361130857808573ffffffffffffffffffffffffffffffffffffffff16630bc6bffc6040518163ffffffff1660e01b8152600401602060405180830381865afa158015611255573d6000803e3d6000fd5b505050506040513d601f19601f820116820180604052508101906112799190612c8d565b73ffffffffffffffffffffffffffffffffffffffff1663313ce5676040518163ffffffff1660e01b8152600401602060405180830381865afa1580156112c3573d6000803e3d6000fd5b505050506040513d601f19601f820116820180604052508101906112e79190612cc1565b60ff166112f49190612caa565b6112ff90600a612e04565b95945050505050565b61012d5460009061132e9073ffffffffffffffffffffffffffffffffffffffff16611be9565b6040517fdace5dbe00000000000000000000000000000000000000000000000000000000815273ffffffffffffffffffffffffffffffffffffffff888116600483015291925060009183169063dace5dbe90602401602060405180830381865afa1580156113a0573d6000803e3d6000fd5b505050506040513d601f19601f820116820180604052508101906113c49190612c74565b9050836113d284600a612e04565b6113dc9083612c37565b6113e69190612e10565b979650505050505050565b600054610100900460ff16158080156114115750600054600160ff909116105b8061142b5750303b15801561142b575060005460ff166001145b6114b7576040517f08c379a000000000000000000000000000000000000000000000000000000000815260206004820152602e60248201527f496e697469616c697a61626c653a20636f6e747261637420697320616c72656160448201527f647920696e697469616c697a656400000000000000000000000000000000000060648201526084016107be565b600080547fffffffffffffffffffffffffffffffffffffffffffffffffffffffffffffff00166001179055801561151557600080547fffffffffffffffffffffffffffffffffffffffffffffffffffffffffffff00ff166101001790555b61151e33611c5d565b61012d80547fffffffffffffffffffffffff00000000000000000000000000000000000000001673ffffffffffffffffffffffffffffffffffffffff841617905580156107d157600080547fffffffffffffffffffffffffffffffffffffffffffffffffffffffffffff00ff169055604051600181527f7f26b83ff96e1f2b6a682f133852f6798a09c465da95921460cefb38474024989060200160405180910390a15050565b600081815260fb602052604081206104af90611cfd565b600082815260c960205260409020600101546115f7816116f2565b610718838361171e565b6104cb6127106064612c37565b61016d61161c603c80612c37565b611627906018612c37565b6104cb9190612c37565b60007fffffffff0000000000000000000000000000000000000000000000000000000082167f7965db0b0000000000000000000000000000000000000000000000000000000014806104af57507f01ffc9a7000000000000000000000000000000000000000000000000000000007fffffffff000000000000000000000000000000000000000000000000000000008316146104af565b60008282116116d9575060006104df565b60006116e58484612caa565b9050610c0c868683611d07565b6107f48133611dbc565b6117068282611e76565b600082815260fb602052604090206107189082611f6a565b6117288282611f8c565b600082815260fb602052604090206107189082612047565b60008083905060008173ffffffffffffffffffffffffffffffffffffffff16631755ff216040518163ffffffff1660e01b8152600401602060405180830381865afa158015611793573d6000803e3d6000fd5b505050506040513d601f19601f820116820180604052508101906117b79190612c8d565b905060008273ffffffffffffffffffffffffffffffffffffffff1662b7f6816040518163ffffffff1660e01b8152600401602060405180830381865afa158015611805573d6000803e3d6000fd5b505050506040513d601f19601f820116820180604052508101906118299190612cc1565b60ff16600181111561183d5761183d612ee1565b600181111561184e5761184e612ee1565b03611a20576040517fac2a6a3800000000000000000000000000000000000000000000000000000000815273ffffffffffffffffffffffffffffffffffffffff868116600483015285811660248301526000919083169063ac2a6a3890604401602060405180830381865afa1580156118cb573d6000803e3d6000fd5b505050506040513d601f19601f820116820180604052508101906118ef9190612c74565b6040517f70a0823100000000000000000000000000000000000000000000000000000000815273ffffffffffffffffffffffffffffffffffffffff87811660048301529192506000918391908616906370a0823190602401602060405180830381865afa158015611964573d6000803e3d6000fd5b505050506040513d601f19601f820116820180604052508101906119889190612c74565b6119929190612caa565b90506000611a088573ffffffffffffffffffffffffffffffffffffffff16631755ff216040518163ffffffff1660e01b8152600401602060405180830381865afa1580156119e4573d6000803e3d6000fd5b505050506040513d601f19601f820116820180604052508101906102d59190612c8d565b9050611a148183612c37565b955050505050506104af565b6040517fac2a6a3800000000000000000000000000000000000000000000000000000000815273ffffffffffffffffffffffffffffffffffffffff868116600483015285811660248301526000919083169063ac2a6a3890604401602060405180830381865afa158015611a98573d6000803e3d6000fd5b505050506040513d601f19601f82011682018060405250810190611abc9190612c74565b6040517f70a0823100000000000000000000000000000000000000000000000000000000815273ffffffffffffffffffffffffffffffffffffffff87811660048301529192506000918391908616906370a0823190602401602060405180830381865afa158015611b31573d6000803e3d6000fd5b505050506040513d601f19601f82011682018060405250810190611b559190612c74565b611b5f9190612caa565b90506000611a0884610f5d565b611b74612069565b603380547fffffffffffffffffffffffffffffffffffffffffffffffffffffffffffffff001690557f5db9ee0a495bf2e6ff9c91a7834c1ba4fdd244a5e8aa4e537bd38aeae4b073aa335b60405173ffffffffffffffffffffffffffffffffffffffff909116815260200160405180910390a1565b60006104af8260106120d7565b611bfe612181565b603380547fffffffffffffffffffffffffffffffffffffffffffffffffffffffffffffff001660011790557f62e78cea01bee320cd4e420270b5ea74000d11b0c9f74754ebdbfc544b05a258611bbf3390565b60006106ec83836121ee565b600054610100900460ff16611cf4576040517f08c379a000000000000000000000000000000000000000000000000000000000815260206004820152602b60248201527f496e697469616c697a61626c653a20636f6e7472616374206973206e6f74206960448201527f6e697469616c697a696e6700000000000000000000000000000000000000000060648201526084016107be565b6107f481612218565b60006104af825490565b6000836b033b2e3c9fd0803ce8000000611d9e61016d611d28603c80612c37565b611d33906018612c37565b611d3d9190612c37565b6064611d576127106b033b2e3c9fd0803ce8000000612e10565b611d619190612e10565b611d6b9088612c37565b611d759190612e10565b611d8b906b033b2e3c9fd0803ce8000000612f10565b856b033b2e3c9fd0803ce8000000612344565b611da89087612c37565b611db29190612e10565b6104df9190612caa565b600082815260c96020908152604080832073ffffffffffffffffffffffffffffffffffffffff8516845290915290205460ff166107d157611dfc81612401565b611e07836020612420565b604051602001611e18929190612f58565b604080517fffffffffffffffffffffffffffffffffffffffffffffffffffffffffffffffe0818403018152908290527f08c379a00000000000000000000000000000000000000000000000000000000082526107be91600401612fd9565b600082815260c96020908152604080832073ffffffffffffffffffffffffffffffffffffffff8516845290915290205460ff166107d157600082815260c96020908152604080832073ffffffffffffffffffffffffffffffffffffffff85168452909152902080547fffffffffffffffffffffffffffffffffffffffffffffffffffffffffffffff00166001179055611f0c3390565b73ffffffffffffffffffffffffffffffffffffffff168173ffffffffffffffffffffffffffffffffffffffff16837f2f8788117e7eff1d82e926ec794901d17c78024a50270940304540a733656f0d60405160405180910390a45050565b60006106ec8373ffffffffffffffffffffffffffffffffffffffff8416612663565b600082815260c96020908152604080832073ffffffffffffffffffffffffffffffffffffffff8516845290915290205460ff16156107d157600082815260c96020908152604080832073ffffffffffffffffffffffffffffffffffffffff8516808552925280832080547fffffffffffffffffffffffffffffffffffffffffffffffffffffffffffffff0016905551339285917ff6391f5c32d9c69d2a47ea670b442974b53935d1edc7fd64eb21e047a839171b9190a45050565b60006106ec8373ffffffffffffffffffffffffffffffffffffffff84166126b2565b60335460ff166120d5576040517f08c379a000000000000000000000000000000000000000000000000000000000815260206004820152601460248201527f5061757361626c653a206e6f742070617573656400000000000000000000000060448201526064016107be565b565b60008273ffffffffffffffffffffffffffffffffffffffff1663bcaa0c5583601781111561210757612107612ee1565b6040517fffffffff0000000000000000000000000000000000000000000000000000000060e084901b16815260ff9091166004820152602401602060405180830381865afa15801561215d573d6000803e3d6000fd5b505050506040513d601f19601f820116820180604052508101906106ec9190612c8d565b60335460ff16156120d5576040517f08c379a000000000000000000000000000000000000000000000000000000000815260206004820152601060248201527f5061757361626c653a207061757365640000000000000000000000000000000060448201526064016107be565b600082600001828154811061220557612205612e7a565b9060005260206000200154905092915050565b600054610100900460ff166122af576040517f08c379a000000000000000000000000000000000000000000000000000000000815260206004820152602b60248201527f496e697469616c697a61626c653a20636f6e7472616374206973206e6f74206960448201527f6e697469616c697a696e6700000000000000000000000000000000000000000060648201526084016107be565b6122b76127a5565b6122bf612866565b6122c7612904565b73ffffffffffffffffffffffffffffffffffffffff81166122e55750335b6122f060008261299b565b61231a7fb19546dff01e856fb3f010c267a7b1c60363cf8a4664e21cc89c26224620214e8261299b565b6107f47fb19546dff01e856fb3f010c267a7b1c60363cf8a4664e21cc89c26224620214e806129a5565b60008380156123e45760018416801561235f57859250612363565b8392505b50600283046002850494505b84156123de57858602868782041461238657600080fd5b8181018181101561239657600080fd5b85900496505060018516156123d35785830283878204141587151516156123bc57600080fd5b818101818110156123cc57600080fd5b8590049350505b60028504945061236f565b506123f9565b8380156123f45760009250610f54565b839250505b509392505050565b60606104af73ffffffffffffffffffffffffffffffffffffffff831660145b6060600061242f836002612c37565b61243a906002612f10565b67ffffffffffffffff81111561245257612452612e4b565b6040519080825280601f01601f19166020018201604052801561247c576020820181803683370190505b5090507f3000000000000000000000000000000000000000000000000000000000000000816000815181106124b3576124b3612e7a565b60200101907effffffffffffffffffffffffffffffffffffffffffffffffffffffffffffff1916908160001a9053507f78000000000000000000000000000000000000000000000000000000000000008160018151811061251657612516612e7a565b60200101907effffffffffffffffffffffffffffffffffffffffffffffffffffffffffffff1916908160001a9053506000612552846002612c37565b61255d906001612f10565b90505b60018111156125fa577f303132333435363738396162636465660000000000000000000000000000000085600f166010811061259e5761259e612e7a565b1a60f81b8282815181106125b4576125b4612e7a565b60200101907effffffffffffffffffffffffffffffffffffffffffffffffffffffffffffff1916908160001a90535060049490941c936125f38161302a565b9050612560565b5083156106ec576040517f08c379a000000000000000000000000000000000000000000000000000000000815260206004820181905260248201527f537472696e67733a20686578206c656e67746820696e73756666696369656e7460448201526064016107be565b60008181526001830160205260408120546126aa575081546001818101845560008481526020808220909301849055845484825282860190935260409020919091556104af565b5060006104af565b6000818152600183016020526040812054801561279b5760006126d6600183612caa565b85549091506000906126ea90600190612caa565b905081811461274f57600086600001828154811061270a5761270a612e7a565b906000526020600020015490508087600001848154811061272d5761272d612e7a565b6000918252602080832090910192909255918252600188019052604090208390555b85548690806127605761276061305f565b6001900381819060005260206000200160009055905585600101600086815260200190815260200160002060009055600193505050506104af565b60009150506104af565b600054610100900460ff1661283c576040517f08c379a000000000000000000000000000000000000000000000000000000000815260206004820152602b60248201527f496e697469616c697a61626c653a20636f6e7472616374206973206e6f74206960448201527f6e697469616c697a696e6700000000000000000000000000000000000000000060648201526084016107be565b603380547fffffffffffffffffffffffffffffffffffffffffffffffffffffffffffffff00169055565b600054610100900460ff166128fd576040517f08c379a000000000000000000000000000000000000000000000000000000000815260206004820152602b60248201527f496e697469616c697a61626c653a20636f6e7472616374206973206e6f74206960448201527f6e697469616c697a696e6700000000000000000000000000000000000000000060648201526084016107be565b6001606555565b600054610100900460ff166120d5576040517f08c379a000000000000000000000000000000000000000000000000000000000815260206004820152602b60248201527f496e697469616c697a61626c653a20636f6e7472616374206973206e6f74206960448201527f6e697469616c697a696e6700000000000000000000000000000000000000000060648201526084016107be565b6107d182826116fc565b600082815260c96020526040808220600101805490849055905190918391839186917fbd79b86ffe0ab8e8776151514217cd7cacd52c909f66475c3af44e129f0b00ff9190a4505050565b600060208284031215612a0257600080fd5b81357fffffffff00000000000000000000000000000000000000000000000000000000811681146106ec57600080fd5b60008060008060808587031215612a4857600080fd5b5050823594602084013594506040840135936060013592509050565b73ffffffffffffffffffffffffffffffffffffffff811681146107f457600080fd5b600060208284031215612a9857600080fd5b81356106ec81612a64565b600060208284031215612ab557600080fd5b5035919050565b60008060408385031215612acf57600080fd5b823591506020830135612ae181612a64565b809150509250929050565b60008060408385031215612aff57600080fd5b8235612b0a81612a64565b91506020830135612ae181612a64565b60008060408385031215612b2d57600080fd5b50508035926020909101359150565b600080600060408486031215612b5157600080fd5b8335612b5c81612a64565b9250602084013567ffffffffffffffff80821115612b7957600080fd5b818601915086601f830112612b8d57600080fd5b813581811115612b9c57600080fd5b8760208260051b8501011115612bb157600080fd5b6020830194508093505050509250925092565b6020808252825182820181905260009190848201906040850190845b81811015612bfc57835183529284019291840191600101612be0565b50909695505050505050565b7f4e487b7100000000000000000000000000000000000000000000000000000000600052601160045260246000fd5b6000817fffffffffffffffffffffffffffffffffffffffffffffffffffffffffffffffff0483118215151615612c6f57612c6f612c08565b500290565b600060208284031215612c8657600080fd5b5051919050565b600060208284031215612c9f57600080fd5b81516106ec81612a64565b600082821015612cbc57612cbc612c08565b500390565b600060208284031215612cd357600080fd5b815160ff811681146106ec57600080fd5b600181815b80851115612d3d57817fffffffffffffffffffffffffffffffffffffffffffffffffffffffffffffffff04821115612d2357612d23612c08565b80851615612d3057918102915b93841c9390800290612ce9565b509250929050565b600082612d54575060016104af565b81612d61575060006104af565b8160018114612d775760028114612d8157612d9d565b60019150506104af565b60ff841115612d9257612d92612c08565b50506001821b6104af565b5060208310610133831016604e8410600b8410161715612dc0575081810a6104af565b612dca8383612ce4565b807fffffffffffffffffffffffffffffffffffffffffffffffffffffffffffffffff04821115612dfc57612dfc612c08565b029392505050565b60006106ec8383612d45565b600082612e46577f4e487b7100000000000000000000000000000000000000000000000000000000600052601260045260246000fd5b500490565b7f4e487b7100000000000000000000000000000000000000000000000000000000600052604160045260246000fd5b7f4e487b7100000000000000000000000000000000000000000000000000000000600052603260045260246000fd5b60007fffffffffffffffffffffffffffffffffffffffffffffffffffffffffffffffff8203612eda57612eda612c08565b5060010190565b7f4e487b7100000000000000000000000000000000000000000000000000000000600052602160045260246000fd5b60008219821115612f2357612f23612c08565b500190565b60005b83811015612f43578181015183820152602001612f2b565b83811115612f52576000848401525b50505050565b7f416363657373436f6e74726f6c3a206163636f756e7420000000000000000000815260008351612f90816017850160208801612f28565b7f206973206d697373696e6720726f6c65200000000000000000000000000000006017918401918201528351612fcd816028840160208801612f28565b01602801949350505050565b6020815260008251806020840152612ff8816040850160208701612f28565b601f017fffffffffffffffffffffffffffffffffffffffffffffffffffffffffffffffe0169190910160400192915050565b60008161303957613039612c08565b507fffffffffffffffffffffffffffffffffffffffffffffffffffffffffffffffff0190565b7f4e487b7100000000000000000000000000000000000000000000000000000000600052603160045260246000fdfea26469706673582212206d4dbb545b9d6d2f1afdf3901710b8302ca0192bf079dabe81321132243626ce64736f6c634300080d0033",
  "devdoc": {
    "kind": "dev",
    "methods": {
      "getRoleAdmin(bytes32)": {
        "details": "Returns the admin role that controls `role`. See {grantRole} and {revokeRole}. To change a role's admin, use {_setRoleAdmin}."
      },
      "getRoleMember(bytes32,uint256)": {
        "details": "Returns one of the accounts that have `role`. `index` must be a value between 0 and {getRoleMemberCount}, non-inclusive. Role bearers are not sorted in any particular way, and their ordering may change at any point. WARNING: When using {getRoleMember} and {getRoleMemberCount}, make sure you perform all queries on the same block. See the following https://forum.openzeppelin.com/t/iterating-over-elements-on-enumerableset-in-openzeppelin-contracts/2296[forum post] for more information."
      },
      "getRoleMemberCount(bytes32)": {
        "details": "Returns the number of accounts that have `role`. Can be used together with {getRoleMember} to enumerate all bearers of a role."
      },
      "grantRole(bytes32,address)": {
        "details": "Grants `role` to `account`. If `account` had not been already granted `role`, emits a {RoleGranted} event. Requirements: - the caller must have ``role``'s admin role. May emit a {RoleGranted} event."
      },
      "hasRole(bytes32,address)": {
        "details": "Returns `true` if `account` has been granted `role`."
      },
      "paused()": {
        "details": "Returns true if the contract is paused, and false otherwise."
      },
      "renounceRole(bytes32,address)": {
        "details": "Revokes `role` from the calling account. Roles are often managed via {grantRole} and {revokeRole}: this function's purpose is to provide a mechanism for accounts to lose their privileges if they are compromised (such as when a trusted device is misplaced). If the calling account had been revoked `role`, emits a {RoleRevoked} event. Requirements: - the caller must be `account`. May emit a {RoleRevoked} event."
      },
      "revokeRole(bytes32,address)": {
        "details": "Revokes `role` from `account`. If `account` had been granted `role`, emits a {RoleRevoked} event. Requirements: - the caller must have ``role``'s admin role. May emit a {RoleRevoked} event."
      },
      "supportsInterface(bytes4)": {
        "details": "See {IERC165-supportsInterface}."
      }
    },
    "version": 1
  },
  "userdoc": {
    "kind": "user",
    "methods": {},
    "version": 1
  },
  "storageLayout": {
    "storage": [
      {
        "astId": 717,
        "contract": "contracts/protocol/pool/DistributionAssessor.sol:DistributionAssessor",
        "label": "_initialized",
        "offset": 0,
        "slot": "0",
        "type": "t_uint8"
      },
      {
        "astId": 720,
        "contract": "contracts/protocol/pool/DistributionAssessor.sol:DistributionAssessor",
        "label": "_initializing",
        "offset": 1,
        "slot": "0",
        "type": "t_bool"
      },
      {
        "astId": 3333,
        "contract": "contracts/protocol/pool/DistributionAssessor.sol:DistributionAssessor",
        "label": "__gap",
        "offset": 0,
        "slot": "1",
        "type": "t_array(t_uint256)50_storage"
      },
      {
        "astId": 900,
        "contract": "contracts/protocol/pool/DistributionAssessor.sol:DistributionAssessor",
        "label": "_paused",
        "offset": 0,
        "slot": "51",
        "type": "t_bool"
      },
      {
        "astId": 1005,
        "contract": "contracts/protocol/pool/DistributionAssessor.sol:DistributionAssessor",
        "label": "__gap",
        "offset": 0,
        "slot": "52",
        "type": "t_array(t_uint256)49_storage"
      },
      {
        "astId": 1020,
        "contract": "contracts/protocol/pool/DistributionAssessor.sol:DistributionAssessor",
        "label": "_status",
        "offset": 0,
        "slot": "101",
        "type": "t_uint256"
      },
      {
        "astId": 1089,
        "contract": "contracts/protocol/pool/DistributionAssessor.sol:DistributionAssessor",
        "label": "__gap",
        "offset": 0,
        "slot": "102",
        "type": "t_array(t_uint256)49_storage"
      },
      {
        "astId": 3680,
        "contract": "contracts/protocol/pool/DistributionAssessor.sol:DistributionAssessor",
        "label": "__gap",
        "offset": 0,
        "slot": "151",
        "type": "t_array(t_uint256)50_storage"
      },
      {
        "astId": 184,
        "contract": "contracts/protocol/pool/DistributionAssessor.sol:DistributionAssessor",
        "label": "_roles",
        "offset": 0,
        "slot": "201",
        "type": "t_mapping(t_bytes32,t_struct(RoleData)179_storage)"
      },
      {
        "astId": 479,
        "contract": "contracts/protocol/pool/DistributionAssessor.sol:DistributionAssessor",
        "label": "__gap",
        "offset": 0,
        "slot": "202",
        "type": "t_array(t_uint256)49_storage"
      },
      {
        "astId": 33,
        "contract": "contracts/protocol/pool/DistributionAssessor.sol:DistributionAssessor",
        "label": "_roleMembers",
        "offset": 0,
        "slot": "251",
        "type": "t_mapping(t_bytes32,t_struct(AddressSet)4990_storage)"
      },
      {
        "astId": 143,
        "contract": "contracts/protocol/pool/DistributionAssessor.sol:DistributionAssessor",
        "label": "__gap",
        "offset": 0,
        "slot": "252",
        "type": "t_array(t_uint256)49_storage"
      },
      {
        "astId": 12583,
        "contract": "contracts/protocol/pool/DistributionAssessor.sol:DistributionAssessor",
        "label": "registry",
        "offset": 0,
        "slot": "301",
        "type": "t_contract(Registry)13145"
      }
    ],
    "types": {
      "t_address": {
        "encoding": "inplace",
        "label": "address",
        "numberOfBytes": "20"
      },
      "t_array(t_bytes32)dyn_storage": {
        "base": "t_bytes32",
        "encoding": "dynamic_array",
        "label": "bytes32[]",
        "numberOfBytes": "32"
      },
      "t_array(t_uint256)49_storage": {
        "base": "t_uint256",
        "encoding": "inplace",
        "label": "uint256[49]",
        "numberOfBytes": "1568"
      },
      "t_array(t_uint256)50_storage": {
        "base": "t_uint256",
        "encoding": "inplace",
        "label": "uint256[50]",
        "numberOfBytes": "1600"
      },
      "t_bool": {
        "encoding": "inplace",
        "label": "bool",
        "numberOfBytes": "1"
      },
      "t_bytes32": {
        "encoding": "inplace",
        "label": "bytes32",
        "numberOfBytes": "32"
      },
      "t_contract(Registry)13145": {
        "encoding": "inplace",
        "label": "contract Registry",
        "numberOfBytes": "20"
      },
      "t_mapping(t_address,t_bool)": {
        "encoding": "mapping",
        "key": "t_address",
        "label": "mapping(address => bool)",
        "numberOfBytes": "32",
        "value": "t_bool"
      },
      "t_mapping(t_bytes32,t_struct(AddressSet)4990_storage)": {
        "encoding": "mapping",
        "key": "t_bytes32",
        "label": "mapping(bytes32 => struct EnumerableSetUpgradeable.AddressSet)",
        "numberOfBytes": "32",
        "value": "t_struct(AddressSet)4990_storage"
      },
      "t_mapping(t_bytes32,t_struct(RoleData)179_storage)": {
        "encoding": "mapping",
        "key": "t_bytes32",
        "label": "mapping(bytes32 => struct AccessControlUpgradeable.RoleData)",
        "numberOfBytes": "32",
        "value": "t_struct(RoleData)179_storage"
      },
      "t_mapping(t_bytes32,t_uint256)": {
        "encoding": "mapping",
        "key": "t_bytes32",
        "label": "mapping(bytes32 => uint256)",
        "numberOfBytes": "32",
        "value": "t_uint256"
      },
      "t_struct(AddressSet)4990_storage": {
        "encoding": "inplace",
        "label": "struct EnumerableSetUpgradeable.AddressSet",
        "members": [
          {
            "astId": 4989,
            "contract": "contracts/protocol/pool/DistributionAssessor.sol:DistributionAssessor",
            "label": "_inner",
            "offset": 0,
            "slot": "0",
            "type": "t_struct(Set)4675_storage"
          }
        ],
        "numberOfBytes": "64"
      },
      "t_struct(RoleData)179_storage": {
        "encoding": "inplace",
        "label": "struct AccessControlUpgradeable.RoleData",
        "members": [
          {
            "astId": 176,
            "contract": "contracts/protocol/pool/DistributionAssessor.sol:DistributionAssessor",
            "label": "members",
            "offset": 0,
            "slot": "0",
            "type": "t_mapping(t_address,t_bool)"
          },
          {
            "astId": 178,
            "contract": "contracts/protocol/pool/DistributionAssessor.sol:DistributionAssessor",
            "label": "adminRole",
            "offset": 0,
            "slot": "1",
            "type": "t_bytes32"
          }
        ],
        "numberOfBytes": "64"
      },
      "t_struct(Set)4675_storage": {
        "encoding": "inplace",
        "label": "struct EnumerableSetUpgradeable.Set",
        "members": [
          {
            "astId": 4670,
            "contract": "contracts/protocol/pool/DistributionAssessor.sol:DistributionAssessor",
            "label": "_values",
            "offset": 0,
            "slot": "0",
            "type": "t_array(t_bytes32)dyn_storage"
          },
          {
            "astId": 4674,
            "contract": "contracts/protocol/pool/DistributionAssessor.sol:DistributionAssessor",
            "label": "_indexes",
            "offset": 0,
            "slot": "1",
            "type": "t_mapping(t_bytes32,t_uint256)"
          }
        ],
        "numberOfBytes": "64"
      },
      "t_uint256": {
        "encoding": "inplace",
        "label": "uint256",
        "numberOfBytes": "32"
      },
      "t_uint8": {
        "encoding": "inplace",
        "label": "uint8",
        "numberOfBytes": "1"
      }
    }
  }
}