{
  "address": "0xb19BC0a4bDa3D6F5C266c866b1C88622B5016f94",
  "abi": [
    {
      "anonymous": false,
      "inputs": [
        {
          "indexed": false,
          "internalType": "uint8",
          "name": "version",
          "type": "uint8"
        }
      ],
      "name": "Initialized",
      "type": "event"
    },
    {
      "anonymous": false,
      "inputs": [
        {
          "indexed": false,
          "internalType": "address",
          "name": "account",
          "type": "address"
        }
      ],
      "name": "Paused",
      "type": "event"
    },
    {
      "anonymous": false,
      "inputs": [
        {
          "indexed": true,
          "internalType": "bytes32",
          "name": "role",
          "type": "bytes32"
        },
        {
          "indexed": true,
          "internalType": "bytes32",
          "name": "previousAdminRole",
          "type": "bytes32"
        },
        {
          "indexed": true,
          "internalType": "bytes32",
          "name": "newAdminRole",
          "type": "bytes32"
        }
      ],
      "name": "RoleAdminChanged",
      "type": "event"
    },
    {
      "anonymous": false,
      "inputs": [
        {
          "indexed": true,
          "internalType": "bytes32",
          "name": "role",
          "type": "bytes32"
        },
        {
          "indexed": true,
          "internalType": "address",
          "name": "account",
          "type": "address"
        },
        {
          "indexed": true,
          "internalType": "address",
          "name": "sender",
          "type": "address"
        }
      ],
      "name": "RoleGranted",
      "type": "event"
    },
    {
      "anonymous": false,
      "inputs": [
        {
          "indexed": true,
          "internalType": "bytes32",
          "name": "role",
          "type": "bytes32"
        },
        {
          "indexed": true,
          "internalType": "address",
          "name": "account",
          "type": "address"
        },
        {
          "indexed": true,
          "internalType": "address",
          "name": "sender",
          "type": "address"
        }
      ],
      "name": "RoleRevoked",
      "type": "event"
    },
    {
      "anonymous": false,
      "inputs": [
        {
          "indexed": false,
          "internalType": "address",
          "name": "account",
          "type": "address"
        }
      ],
      "name": "Unpaused",
      "type": "event"
    },
    {
      "inputs": [],
      "name": "DAY_LENGTH_IN_SECONDS",
      "outputs": [
        {
          "internalType": "uint256",
          "name": "",
          "type": "uint256"
        }
      ],
      "stateMutability": "view",
      "type": "function"
    },
    {
      "inputs": [],
      "name": "DEFAULT_ADMIN_ROLE",
      "outputs": [
        {
          "internalType": "bytes32",
          "name": "",
          "type": "bytes32"
        }
      ],
      "stateMutability": "view",
      "type": "function"
    },
    {
      "inputs": [],
      "name": "HOUR_LENGTH_IN_SECONDS",
      "outputs": [
        {
          "internalType": "uint256",
          "name": "",
          "type": "uint256"
        }
      ],
      "stateMutability": "view",
      "type": "function"
    },
    {
      "inputs": [],
      "name": "INTEREST_RATE_SCALING_FACTOR_MULTIPLIER",
      "outputs": [
        {
          "internalType": "uint256",
          "name": "",
          "type": "uint256"
        }
      ],
      "stateMutability": "view",
      "type": "function"
    },
    {
      "inputs": [],
      "name": "INTEREST_RATE_SCALING_FACTOR_PERCENT",
      "outputs": [
        {
          "internalType": "uint256",
          "name": "",
          "type": "uint256"
        }
      ],
      "stateMutability": "view",
      "type": "function"
    },
    {
      "inputs": [],
      "name": "MINUTE_LENGTH_IN_SECONDS",
      "outputs": [
        {
          "internalType": "uint256",
          "name": "",
          "type": "uint256"
        }
      ],
      "stateMutability": "view",
      "type": "function"
    },
    {
      "inputs": [],
      "name": "OWNER_ROLE",
      "outputs": [
        {
          "internalType": "bytes32",
          "name": "",
          "type": "bytes32"
        }
      ],
      "stateMutability": "view",
      "type": "function"
    },
    {
      "inputs": [],
      "name": "YEAR_LENGTH_IN_DAYS",
      "outputs": [
        {
          "internalType": "uint256",
          "name": "",
          "type": "uint256"
        }
      ],
      "stateMutability": "view",
      "type": "function"
    },
    {
      "inputs": [],
      "name": "YEAR_LENGTH_IN_SECONDS",
      "outputs": [
        {
          "internalType": "uint256",
          "name": "",
          "type": "uint256"
        }
      ],
      "stateMutability": "view",
      "type": "function"
    },
    {
      "inputs": [
        {
          "internalType": "address",
          "name": "pool",
          "type": "address"
        },
        {
          "internalType": "address",
          "name": "tokenAddress",
          "type": "address"
        },
        {
          "internalType": "address[]",
          "name": "investors",
          "type": "address[]"
        }
      ],
      "name": "calcAssetValue",
      "outputs": [
        {
          "internalType": "uint256[]",
          "name": "principals",
          "type": "uint256[]"
        },
        {
          "internalType": "uint256[]",
          "name": "interests",
          "type": "uint256[]"
        }
      ],
      "stateMutability": "view",
      "type": "function"
    },
    {
      "inputs": [
        {
          "internalType": "address",
          "name": "pool",
          "type": "address"
        },
        {
          "internalType": "address",
          "name": "tokenAddress",
          "type": "address"
        },
        {
          "internalType": "address",
          "name": "investor",
          "type": "address"
        }
      ],
      "name": "calcAssetValue",
      "outputs": [
        {
          "internalType": "uint256",
          "name": "principal",
          "type": "uint256"
        },
        {
          "internalType": "uint256",
          "name": "interest",
          "type": "uint256"
        }
      ],
      "stateMutability": "view",
      "type": "function"
    },
    {
      "inputs": [
        {
          "internalType": "address",
          "name": "tokenAddress",
          "type": "address"
        },
        {
          "internalType": "address",
          "name": "investor",
          "type": "address"
        },
        {
          "internalType": "uint256",
          "name": "endTime",
          "type": "uint256"
        }
      ],
      "name": "calcCorrespondingAssetValue",
      "outputs": [
        {
          "internalType": "uint256",
          "name": "principal",
          "type": "uint256"
        },
        {
          "internalType": "uint256",
          "name": "interest",
          "type": "uint256"
        }
      ],
      "stateMutability": "view",
      "type": "function"
    },
    {
      "inputs": [
        {
          "internalType": "address",
          "name": "tokenAddress",
          "type": "address"
        },
        {
          "internalType": "address[]",
          "name": "investors",
          "type": "address[]"
        },
        {
          "internalType": "uint256",
          "name": "endTime",
          "type": "uint256"
        }
      ],
      "name": "calcCorrespondingAssetValue",
      "outputs": [
        {
          "internalType": "uint256[]",
          "name": "principals",
          "type": "uint256[]"
        },
        {
          "internalType": "uint256[]",
          "name": "interests",
          "type": "uint256[]"
        }
      ],
      "stateMutability": "view",
      "type": "function"
    },
    {
      "inputs": [
        {
          "internalType": "address",
          "name": "tokenAddress",
          "type": "address"
        },
        {
          "internalType": "address",
          "name": "investor",
          "type": "address"
        },
        {
          "internalType": "uint256",
          "name": "endTime",
          "type": "uint256"
        }
      ],
      "name": "calcCorrespondingTotalAssetValue",
      "outputs": [
        {
          "internalType": "uint256",
          "name": "",
          "type": "uint256"
        }
      ],
      "stateMutability": "view",
      "type": "function"
    },
    {
      "inputs": [
        {
          "internalType": "address",
          "name": "pool",
          "type": "address"
        },
        {
          "internalType": "address",
          "name": "tokenAddress",
          "type": "address"
        }
      ],
      "name": "calcTokenPrice",
      "outputs": [
        {
          "internalType": "uint256",
          "name": "",
          "type": "uint256"
        }
      ],
      "stateMutability": "view",
      "type": "function"
    },
    {
      "inputs": [
        {
          "internalType": "uint256",
          "name": "principalAmount",
          "type": "uint256"
        },
        {
          "internalType": "uint256",
          "name": "annualInterestRate",
          "type": "uint256"
        },
        {
          "internalType": "uint256",
          "name": "startTermTimestamp",
          "type": "uint256"
        },
        {
          "internalType": "uint256",
          "name": "timestamp",
          "type": "uint256"
        }
      ],
      "name": "chargeInterest",
      "outputs": [
        {
          "internalType": "uint256",
          "name": "",
          "type": "uint256"
        }
      ],
      "stateMutability": "pure",
      "type": "function"
    },
    {
      "inputs": [
        {
          "internalType": "uint256",
          "name": "_currentPrincipalAmount",
          "type": "uint256"
        },
        {
          "internalType": "uint256",
          "name": "_annualInterestRate",
          "type": "uint256"
        },
        {
          "internalType": "uint256",
          "name": "_startTermTimestamp",
          "type": "uint256"
        },
        {
          "internalType": "uint256",
          "name": "_timestamp",
          "type": "uint256"
        }
      ],
      "name": "chargeLendingInterest",
      "outputs": [
        {
          "internalType": "uint256",
          "name": "",
          "type": "uint256"
        }
      ],
      "stateMutability": "pure",
      "type": "function"
    },
    {
      "inputs": [
        {
          "internalType": "address",
          "name": "pool",
          "type": "address"
        }
      ],
      "name": "getCashBalance",
      "outputs": [
        {
          "internalType": "uint256",
          "name": "",
          "type": "uint256"
        }
      ],
      "stateMutability": "view",
      "type": "function"
    },
    {
      "inputs": [
        {
          "internalType": "contract ISecuritizationPool",
          "name": "securitizationPool",
          "type": "address"
        }
      ],
      "name": "getJOTTokenPrice",
      "outputs": [
        {
          "internalType": "uint256",
          "name": "",
          "type": "uint256"
        }
      ],
      "stateMutability": "view",
      "type": "function"
    },
    {
      "inputs": [
        {
          "internalType": "bytes32",
          "name": "role",
          "type": "bytes32"
        }
      ],
      "name": "getRoleAdmin",
      "outputs": [
        {
          "internalType": "bytes32",
          "name": "",
          "type": "bytes32"
        }
      ],
      "stateMutability": "view",
      "type": "function"
    },
    {
      "inputs": [
        {
          "internalType": "bytes32",
          "name": "role",
          "type": "bytes32"
        },
        {
          "internalType": "uint256",
          "name": "index",
          "type": "uint256"
        }
      ],
      "name": "getRoleMember",
      "outputs": [
        {
          "internalType": "address",
          "name": "",
          "type": "address"
        }
      ],
      "stateMutability": "view",
      "type": "function"
    },
    {
      "inputs": [
        {
          "internalType": "bytes32",
          "name": "role",
          "type": "bytes32"
        }
      ],
      "name": "getRoleMemberCount",
      "outputs": [
        {
          "internalType": "uint256",
          "name": "",
          "type": "uint256"
        }
      ],
      "stateMutability": "view",
      "type": "function"
    },
    {
      "inputs": [
        {
          "internalType": "address",
          "name": "pool",
          "type": "address"
        }
      ],
      "name": "getSOTTokenPrice",
      "outputs": [
        {
          "internalType": "uint256",
          "name": "",
          "type": "uint256"
        }
      ],
      "stateMutability": "view",
      "type": "function"
    },
    {
      "inputs": [
        {
          "internalType": "bytes32",
          "name": "role",
          "type": "bytes32"
        },
        {
          "internalType": "address",
          "name": "account",
          "type": "address"
        }
      ],
      "name": "grantRole",
      "outputs": [],
      "stateMutability": "nonpayable",
      "type": "function"
    },
    {
      "inputs": [
        {
          "internalType": "bytes32",
          "name": "role",
          "type": "bytes32"
        },
        {
          "internalType": "address",
          "name": "account",
          "type": "address"
        }
      ],
      "name": "hasRole",
      "outputs": [
        {
          "internalType": "bool",
          "name": "",
          "type": "bool"
        }
      ],
      "stateMutability": "view",
      "type": "function"
    },
    {
      "inputs": [
        {
          "internalType": "contract Registry",
          "name": "_registry",
          "type": "address"
        }
      ],
      "name": "initialize",
      "outputs": [],
      "stateMutability": "nonpayable",
      "type": "function"
    },
    {
      "inputs": [],
      "name": "pause",
      "outputs": [],
      "stateMutability": "nonpayable",
      "type": "function"
    },
    {
      "inputs": [],
      "name": "paused",
      "outputs": [
        {
          "internalType": "bool",
          "name": "",
          "type": "bool"
        }
      ],
      "stateMutability": "view",
      "type": "function"
    },
    {
      "inputs": [],
      "name": "registry",
      "outputs": [
        {
          "internalType": "contract Registry",
          "name": "",
          "type": "address"
        }
      ],
      "stateMutability": "view",
      "type": "function"
    },
    {
      "inputs": [
        {
          "internalType": "bytes32",
          "name": "role",
          "type": "bytes32"
        },
        {
          "internalType": "address",
          "name": "account",
          "type": "address"
        }
      ],
      "name": "renounceRole",
      "outputs": [],
      "stateMutability": "nonpayable",
      "type": "function"
    },
    {
      "inputs": [
        {
          "internalType": "bytes32",
          "name": "role",
          "type": "bytes32"
        },
        {
          "internalType": "address",
          "name": "account",
          "type": "address"
        }
      ],
      "name": "revokeRole",
      "outputs": [],
      "stateMutability": "nonpayable",
      "type": "function"
    },
    {
      "inputs": [
        {
          "internalType": "bytes4",
          "name": "interfaceId",
          "type": "bytes4"
        }
      ],
      "name": "supportsInterface",
      "outputs": [
        {
          "internalType": "bool",
          "name": "",
          "type": "bool"
        }
      ],
      "stateMutability": "view",
      "type": "function"
    },
    {
      "inputs": [],
      "name": "unpause",
      "outputs": [],
      "stateMutability": "nonpayable",
      "type": "function"
    }
  ],
  "transactionHash": "0x8764580099f983909b9c1190a91e23e252d97eaaef8c7a1d19f7beaf16fd764d",
  "args": [],
  "numDeployments": 4,
  "solcInputHash": "eee041dd5ba526e4781b3c5dfe69f421",
  "bytecode": "0x608060405234801561001057600080fd5b506139a5806100206000396000f3fe608060405234801561001057600080fd5b506004361061020b5760003560e01c80637f26468d1161012a578063ab15de52116100bd578063d547741f1161008c578063de53a13c11610071578063de53a13c14610497578063e58378bb1461049f578063fd127a41146104c657600080fd5b8063d547741f14610484578063dc9494251461029757600080fd5b8063ab15de5214610442578063bd0c85021461044b578063c4d66de81461045e578063ca15c8731461047157600080fd5b806390656d1b116100f957806390656d1b146103d857806391d14854146103eb57806393529cdf14610431578063a217fddf1461043a57600080fd5b80637f26468d146103975780638456cb59146103aa5780638ddf9f7e146103b25780639010d07c146103c557600080fd5b80632f2ff15d116101a25780635c975abb116101715780635c975abb1461032b57806362fac5fc146103365780636f69c96f146103495780637b1039991461035157600080fd5b80632f2ff15d146102e857806336568abe146102fd5780633f4ba83a14610310578063446d464f1461031857600080fd5b8063214b05ef116101de578063214b05ef146102975780632416f5d1146102aa578063248a9ca3146102bd57806327f6ad99146102e057600080fd5b806301ffc9a7146102105780630776298214610238578063122919e01461024e5780631d693eff1461026f575b600080fd5b61022361021e36600461314b565b6104ce565b60405190151581526020015b60405180910390f35b61024061052a565b60405190815260200161022f565b61026161025c3660046131fb565b610543565b60405161022f92919061329b565b61028261027d3660046132c9565b610a1a565b6040805192835260208301919091520161022f565b6102406102a536600461330a565b610a35565b6102406102b836600461333c565b610a4e565b6102406102cb366004613359565b600090815260c9602052604090206001015490565b610240603c81565b6102fb6102f6366004613372565b610c5a565b005b6102fb61030b366004613372565b610c84565b6102fb610d37565b6102406103263660046132c9565b610d4d565b60335460ff16610223565b61024061034436600461333c565b610d76565b610240611086565b61012d546103729073ffffffffffffffffffffffffffffffffffffffff1681565b60405173ffffffffffffffffffffffffffffffffffffffff909116815260200161022f565b6102406103a53660046133a2565b611091565b6102fb6111fd565b6102826103c03660046133d0565b611210565b6103726103d336600461341b565b61168a565b6102616103e636600461343d565b6116a2565b6102236103f9366004613372565b600091825260c96020908152604080842073ffffffffffffffffffffffffffffffffffffffff93909316845291905290205460ff1690565b61024061271081565b610240600081565b61024061016d81565b61024061045936600461333c565b6117c1565b6102fb61046c36600461333c565b611a5c565b61024061047f366004613359565b611c30565b6102fb610492366004613372565b611c47565b610240611c6c565b6102407fb19546dff01e856fb3f010c267a7b1c60363cf8a4664e21cc89c26224620214e81565b610240611c79565b60007fffffffff0000000000000000000000000000000000000000000000000000000082167f5a05180f000000000000000000000000000000000000000000000000000000001480610524575061052482611c9c565b92915050565b610535603c806134c8565b6105409060186134c8565b81565b6060808267ffffffffffffffff81111561055f5761055f613505565b604051908082528060200260200182016040528015610588578160200160208202803683370190505b5091508267ffffffffffffffff8111156105a4576105a4613505565b6040519080825280602002602001820160405280156105cd578160200160208202803683370190505b509050600086905060008173ffffffffffffffffffffffffffffffffffffffff1663febd60186040518163ffffffff1660e01b8152600401602060405180830381865afa158015610622573d6000803e3d6000fd5b505050506040513d601f19601f820116820180604052508101906106469190613534565b905060008273ffffffffffffffffffffffffffffffffffffffff16632b71b4506040518163ffffffff1660e01b8152600401602060405180830381865afa158015610695573d6000803e3d6000fd5b505050506040513d601f19601f820116820180604052508101906106b99190613534565b90508173ffffffffffffffffffffffffffffffffffffffff168873ffffffffffffffffffffffffffffffffffffffff16148061072057508073ffffffffffffffffffffffffffffffffffffffff168873ffffffffffffffffffffffffffffffffffffffff16145b6107b1576040517f08c379a000000000000000000000000000000000000000000000000000000000815260206004820152602d60248201527f446973747269627574696f6e4173736573736f723a20756e6b6e6f776e2d747260448201527f616e6368652d616464726573730000000000000000000000000000000000000060648201526084015b60405180910390fd5b60008373ffffffffffffffffffffffffffffffffffffffff1663477035d16040518163ffffffff1660e01b8152600401602060405180830381865afa1580156107fe573d6000803e3d6000fd5b505050506040513d601f19601f820116820180604052508101906108229190613551565b67ffffffffffffffff1690508273ffffffffffffffffffffffffffffffffffffffff168973ffffffffffffffffffffffffffffffffffffffff16036109745760008473ffffffffffffffffffffffffffffffffffffffff16632bb14ff06040518163ffffffff1660e01b8152600401602060405180830381865afa1580156108ae573d6000803e3d6000fd5b505050506040513d601f19601f820116820180604052508101906108d2919061357b565b905060005b8881101561096d5760008061091688888e8e878181106108f9576108f96135a1565b905060200201602081019061090e919061333c565b878942611d33565b91509150818a848151811061092d5761092d6135a1565b6020026020010181815250508089848151811061094c5761094c6135a1565b60200260200101818152505050508080610965906135d0565b9150506108d7565b5050610a0d565b60005b87811015610a0b576000806109b48d868d8d87818110610999576109996135a1565b90506020020160208101906109ae919061333c565b42611e95565b91509150818984815181106109cb576109cb6135a1565b602002602001018181525050808884815181106109ea576109ea6135a1565b60200260200101818152505050508080610a03906135d0565b915050610977565b505b5050505094509492505050565b600080610a28858585611f9c565b915091505b935093915050565b6000610a4385858585612234565b90505b949350505050565b6000808290508073ffffffffffffffffffffffffffffffffffffffff16637dfbdae26040518163ffffffff1660e01b8152600401602060405180830381865afa158015610a9f573d6000803e3d6000fd5b505050506040513d601f19601f82011682018060405250810190610ac39190613608565b8173ffffffffffffffffffffffffffffffffffffffff16630bc6bffc6040518163ffffffff1660e01b8152600401602060405180830381865afa158015610b0e573d6000803e3d6000fd5b505050506040513d601f19601f82011682018060405250810190610b329190613534565b73ffffffffffffffffffffffffffffffffffffffff166370a082318373ffffffffffffffffffffffffffffffffffffffff16634ba2363a6040518163ffffffff1660e01b8152600401602060405180830381865afa158015610b98573d6000803e3d6000fd5b505050506040513d601f19601f82011682018060405250810190610bbc9190613534565b6040517fffffffff0000000000000000000000000000000000000000000000000000000060e084901b16815273ffffffffffffffffffffffffffffffffffffffff9091166004820152602401602060405180830381865afa158015610c25573d6000803e3d6000fd5b505050506040513d601f19601f82011682018060405250810190610c499190613608565b610c539190613621565b9392505050565b600082815260c96020526040902060010154610c758161225e565b610c7f8383612268565b505050565b73ffffffffffffffffffffffffffffffffffffffff81163314610d29576040517f08c379a000000000000000000000000000000000000000000000000000000000815260206004820152602f60248201527f416363657373436f6e74726f6c3a2063616e206f6e6c792072656e6f756e636560448201527f20726f6c657320666f722073656c66000000000000000000000000000000000060648201526084016107a8565b610d33828261228a565b5050565b6000610d428161225e565b610d4a6122ac565b50565b6000806000610d5d868686611f9c565b9092509050610d6c8183613638565b9695505050505050565b600073ffffffffffffffffffffffffffffffffffffffff8216610d9b57506000919050565b600082905060008173ffffffffffffffffffffffffffffffffffffffff1663febd60186040518163ffffffff1660e01b8152600401602060405180830381865afa158015610ded573d6000803e3d6000fd5b505050506040513d601f19601f82011682018060405250810190610e119190613534565b905060008173ffffffffffffffffffffffffffffffffffffffff166318160ddd6040518163ffffffff1660e01b8152600401602060405180830381865afa158015610e60573d6000803e3d6000fd5b505050506040513d601f19601f82011682018060405250810190610e849190613608565b905060008273ffffffffffffffffffffffffffffffffffffffff1663313ce5676040518163ffffffff1660e01b8152600401602060405180830381865afa158015610ed3573d6000803e3d6000fd5b505050506040513d601f19601f82011682018060405250810190610ef79190613650565b60ff16905073ffffffffffffffffffffffffffffffffffffffff83161580610f8b57508273ffffffffffffffffffffffffffffffffffffffff166318160ddd6040518163ffffffff1660e01b8152600401602060405180830381865afa158015610f65573d6000803e3d6000fd5b505050506040513d601f19601f82011682018060405250810190610f899190613608565b155b15610f9c5750600095945050505050565b61012d54600090610fc29073ffffffffffffffffffffffffffffffffffffffff16612329565b6040517fc780d90600000000000000000000000000000000000000000000000000000000815273ffffffffffffffffffffffffffffffffffffffff898116600483015291925060009183169063c780d90690602401602060405180830381865afa158015611034573d6000803e3d6000fd5b505050506040513d601f19601f820116820180604052508101906110589190613608565b90508361106684600a613793565b61107090836134c8565b61107a919061379f565b98975050505050505050565b610540603c806134c8565b6000808390508073ffffffffffffffffffffffffffffffffffffffff1663febd60186040518163ffffffff1660e01b8152600401602060405180830381865afa1580156110e2573d6000803e3d6000fd5b505050506040513d601f19601f820116820180604052508101906111069190613534565b73ffffffffffffffffffffffffffffffffffffffff168373ffffffffffffffffffffffffffffffffffffffff16036111495761114181610d76565b915050610524565b8073ffffffffffffffffffffffffffffffffffffffff16632b71b4506040518163ffffffff1660e01b8152600401602060405180830381865afa158015611194573d6000803e3d6000fd5b505050506040513d601f19601f820116820180604052508101906111b89190613534565b73ffffffffffffffffffffffffffffffffffffffff168373ffffffffffffffffffffffffffffffffffffffff16036111f357611141816117c1565b5060009392505050565b60006112088161225e565b610d4a612336565b600080600085905060008173ffffffffffffffffffffffffffffffffffffffff1663febd60186040518163ffffffff1660e01b8152600401602060405180830381865afa158015611265573d6000803e3d6000fd5b505050506040513d601f19601f820116820180604052508101906112899190613534565b905060008273ffffffffffffffffffffffffffffffffffffffff16632b71b4506040518163ffffffff1660e01b8152600401602060405180830381865afa1580156112d8573d6000803e3d6000fd5b505050506040513d601f19601f820116820180604052508101906112fc9190613534565b90508173ffffffffffffffffffffffffffffffffffffffff168773ffffffffffffffffffffffffffffffffffffffff16148061136357508073ffffffffffffffffffffffffffffffffffffffff168773ffffffffffffffffffffffffffffffffffffffff16145b6113ef576040517f08c379a000000000000000000000000000000000000000000000000000000000815260206004820152602d60248201527f446973747269627574696f6e4173736573736f723a20756e6b6e6f776e2d747260448201527f616e6368652d616464726573730000000000000000000000000000000000000060648201526084016107a8565b60008373ffffffffffffffffffffffffffffffffffffffff1663477035d16040518163ffffffff1660e01b8152600401602060405180830381865afa15801561143c573d6000803e3d6000fd5b505050506040513d601f19601f820116820180604052508101906114609190613551565b67ffffffffffffffff1690508273ffffffffffffffffffffffffffffffffffffffff168873ffffffffffffffffffffffffffffffffffffffff16036116715760008473ffffffffffffffffffffffffffffffffffffffff16632bb14ff06040518163ffffffff1660e01b8152600401602060405180830381865afa1580156114ec573d6000803e3d6000fd5b505050506040513d601f19601f82011682018060405250810190611510919061357b565b6040517f70a0823100000000000000000000000000000000000000000000000000000000815273ffffffffffffffffffffffffffffffffffffffff8a811660048301529192506000918b16906370a0823190602401602060405180830381865afa158015611582573d6000803e3d6000fd5b505050506040513d601f19601f820116820180604052508101906115a69190613608565b6040517fac2a6a3800000000000000000000000000000000000000000000000000000000815273ffffffffffffffffffffffffffffffffffffffff87811660048301528b8116602483015291925060009188169063ac2a6a3890604401602060405180830381865afa158015611620573d6000803e3d6000fd5b505050506040513d601f19601f820116820180604052508101906116449190613608565b90506116616116538284613621565b8463ffffffff168642612391565b9850985050505050505050610a2d565b61167d89838942611e95565b9550955050505050610a2d565b600082815260fb60205260408120610c5390836123ab565b6060808367ffffffffffffffff8111156116be576116be613505565b6040519080825280602002602001820160405280156116e7578160200160208202803683370190505b5091508367ffffffffffffffff81111561170357611703613505565b60405190808252806020026020018201604052801561172c578160200160208202803683370190505b50905060005b848110156117b75761176b87878784818110611750576117506135a1565b9050602002016020810190611765919061333c565b86611f9c565b84838151811061177d5761177d6135a1565b60200260200101848481518110611796576117966135a1565b602090810291909101019190915252806117af816135d0565b915050611732565b5094509492505050565b600073ffffffffffffffffffffffffffffffffffffffff82166117e657506000919050565b60008273ffffffffffffffffffffffffffffffffffffffff16632b71b4506040518163ffffffff1660e01b8152600401602060405180830381865afa158015611833573d6000803e3d6000fd5b505050506040513d601f19601f820116820180604052508101906118579190613534565b905060008173ffffffffffffffffffffffffffffffffffffffff166318160ddd6040518163ffffffff1660e01b8152600401602060405180830381865afa1580156118a6573d6000803e3d6000fd5b505050506040513d601f19601f820116820180604052508101906118ca9190613608565b905060008273ffffffffffffffffffffffffffffffffffffffff1663313ce5676040518163ffffffff1660e01b8152600401602060405180830381865afa158015611919573d6000803e3d6000fd5b505050506040513d601f19601f8201168201806040525081019061193d9190613650565b60ff16905073ffffffffffffffffffffffffffffffffffffffff83161580611963575081155b1561197357506000949350505050565b61012d546000906119999073ffffffffffffffffffffffffffffffffffffffff16612329565b6040517fdace5dbe00000000000000000000000000000000000000000000000000000000815273ffffffffffffffffffffffffffffffffffffffff888116600483015291925060009183169063dace5dbe90602401602060405180830381865afa158015611a0b573d6000803e3d6000fd5b505050506040513d601f19601f82011682018060405250810190611a2f9190613608565b905083611a3d84600a613793565b611a4790836134c8565b611a51919061379f565b979650505050505050565b600054610100900460ff1615808015611a7c5750600054600160ff909116105b80611a965750303b158015611a96575060005460ff166001145b611b22576040517f08c379a000000000000000000000000000000000000000000000000000000000815260206004820152602e60248201527f496e697469616c697a61626c653a20636f6e747261637420697320616c72656160448201527f647920696e697469616c697a656400000000000000000000000000000000000060648201526084016107a8565b600080547fffffffffffffffffffffffffffffffffffffffffffffffffffffffffffffff001660011790558015611b8057600080547fffffffffffffffffffffffffffffffffffffffffffffffffffffffffffff00ff166101001790555b611b89336123b7565b61012d80547fffffffffffffffffffffffff00000000000000000000000000000000000000001673ffffffffffffffffffffffffffffffffffffffff84161790558015610d3357600080547fffffffffffffffffffffffffffffffffffffffffffffffffffffffffffff00ff169055604051600181527f7f26b83ff96e1f2b6a682f133852f6798a09c465da95921460cefb38474024989060200160405180910390a15050565b600081815260fb6020526040812061052490612457565b600082815260c96020526040902060010154611c628161225e565b610c7f838361228a565b61054061271060646134c8565b61016d611c87603c806134c8565b611c929060186134c8565b61054091906134c8565b60007fffffffff0000000000000000000000000000000000000000000000000000000082167f7965db0b00000000000000000000000000000000000000000000000000000000148061052457507f01ffc9a7000000000000000000000000000000000000000000000000000000007fffffffff00000000000000000000000000000000000000000000000000000000831614610524565b6040517fac2a6a3800000000000000000000000000000000000000000000000000000000815273ffffffffffffffffffffffffffffffffffffffff8681166004830152858116602483015260009182918291908a169063ac2a6a3890604401602060405180830381865afa158015611daf573d6000803e3d6000fd5b505050506040513d601f19601f82011682018060405250810190611dd39190613608565b6040517f70a0823100000000000000000000000000000000000000000000000000000000815273ffffffffffffffffffffffffffffffffffffffff8981166004830152919250611e85918391908b16906370a0823190602401602060405180830381865afa158015611e49573d6000803e3d6000fd5b505050506040513d601f19601f82011682018060405250810190611e6d9190613608565b611e779190613621565b8763ffffffff168787612391565b9250925050965096945050505050565b6000806000611ea3876117c1565b6040517f70a0823100000000000000000000000000000000000000000000000000000000815273ffffffffffffffffffffffffffffffffffffffff87811660048301529192506000918816906370a0823190602401602060405180830381865afa158015611f15573d6000803e3d6000fd5b505050506040513d601f19601f82011682018060405250810190611f399190613608565b9050612710821115611f73578080612710611f5485836134c8565b611f5e919061379f565b611f689190613621565b935093505050611f93565b612710611f8083836134c8565b611f8a919061379f565b60009350935050505b94509492505050565b600080600085905060008173ffffffffffffffffffffffffffffffffffffffff16631755ff216040518163ffffffff1660e01b8152600401602060405180830381865afa158015611ff1573d6000803e3d6000fd5b505050506040513d601f19601f820116820180604052508101906120159190613534565b905060008273ffffffffffffffffffffffffffffffffffffffff1662b7f6816040518163ffffffff1660e01b8152600401602060405180830381865afa158015612063573d6000803e3d6000fd5b505050506040513d601f19601f820116820180604052508101906120879190613650565b60ff16600181111561209b5761209b6137da565b60018111156120ac576120ac6137da565b036121af5760008173ffffffffffffffffffffffffffffffffffffffff1663477035d16040518163ffffffff1660e01b8152600401602060405180830381865afa1580156120fe573d6000803e3d6000fd5b505050506040513d601f19601f820116820180604052508101906121229190613551565b67ffffffffffffffff16905060008273ffffffffffffffffffffffffffffffffffffffff16632bb14ff06040518163ffffffff1660e01b8152600401602060405180830381865afa15801561217b573d6000803e3d6000fd5b505050506040513d601f19601f8201168201806040525081019061219f919061357b565b905061167d838a8a84868c611d33565b6122298273ffffffffffffffffffffffffffffffffffffffff16631755ff216040518163ffffffff1660e01b8152600401602060405180830381865afa1580156121fd573d6000803e3d6000fd5b505050506040513d601f19601f820116820180604052508101906122219190613534565b888888611e95565b935093505050610a2d565b600082821161224557506000610a46565b60006122518484613621565b9050610d6c868683612461565b610d4a8133612516565b61227282826125d0565b600082815260fb60205260409020610c7f90826126c4565b61229482826126e6565b600082815260fb60205260409020610c7f90826127a1565b6122b46127c3565b603380547fffffffffffffffffffffffffffffffffffffffffffffffffffffffffffffff001690557f5db9ee0a495bf2e6ff9c91a7834c1ba4fdd244a5e8aa4e537bd38aeae4b073aa335b60405173ffffffffffffffffffffffffffffffffffffffff909116815260200160405180910390a1565b6000610524826010612831565b61233e6128db565b603380547fffffffffffffffffffffffffffffffffffffffffffffffffffffffffffffff001660011790557f62e78cea01bee320cd4e420270b5ea74000d11b0c9f74754ebdbfc544b05a2586122ff3390565b8360006123a082868686610a35565b905094509492505050565b6000610c538383612948565b600054610100900460ff1661244e576040517f08c379a000000000000000000000000000000000000000000000000000000000815260206004820152602b60248201527f496e697469616c697a61626c653a20636f6e7472616374206973206e6f74206960448201527f6e697469616c697a696e6700000000000000000000000000000000000000000060648201526084016107a8565b610d4a81612972565b6000610524825490565b6000836b033b2e3c9fd0803ce80000006124f861016d612482603c806134c8565b61248d9060186134c8565b61249791906134c8565b60646124b16127106b033b2e3c9fd0803ce800000061379f565b6124bb919061379f565b6124c590886134c8565b6124cf919061379f565b6124e5906b033b2e3c9fd0803ce8000000613638565b856b033b2e3c9fd0803ce8000000612a9e565b61250290876134c8565b61250c919061379f565b610a469190613621565b600082815260c96020908152604080832073ffffffffffffffffffffffffffffffffffffffff8516845290915290205460ff16610d335761255681612b5c565b612561836020612b7b565b604051602001612572929190613839565b604080517fffffffffffffffffffffffffffffffffffffffffffffffffffffffffffffffe0818403018152908290527f08c379a00000000000000000000000000000000000000000000000000000000082526107a8916004016138ba565b600082815260c96020908152604080832073ffffffffffffffffffffffffffffffffffffffff8516845290915290205460ff16610d3357600082815260c96020908152604080832073ffffffffffffffffffffffffffffffffffffffff85168452909152902080547fffffffffffffffffffffffffffffffffffffffffffffffffffffffffffffff001660011790556126663390565b73ffffffffffffffffffffffffffffffffffffffff168173ffffffffffffffffffffffffffffffffffffffff16837f2f8788117e7eff1d82e926ec794901d17c78024a50270940304540a733656f0d60405160405180910390a45050565b6000610c538373ffffffffffffffffffffffffffffffffffffffff8416612dbe565b600082815260c96020908152604080832073ffffffffffffffffffffffffffffffffffffffff8516845290915290205460ff1615610d3357600082815260c96020908152604080832073ffffffffffffffffffffffffffffffffffffffff8516808552925280832080547fffffffffffffffffffffffffffffffffffffffffffffffffffffffffffffff0016905551339285917ff6391f5c32d9c69d2a47ea670b442974b53935d1edc7fd64eb21e047a839171b9190a45050565b6000610c538373ffffffffffffffffffffffffffffffffffffffff8416612e0d565b60335460ff1661282f576040517f08c379a000000000000000000000000000000000000000000000000000000000815260206004820152601460248201527f5061757361626c653a206e6f742070617573656400000000000000000000000060448201526064016107a8565b565b60008273ffffffffffffffffffffffffffffffffffffffff1663bcaa0c5583601e811115612861576128616137da565b6040517fffffffff0000000000000000000000000000000000000000000000000000000060e084901b16815260ff9091166004820152602401602060405180830381865afa1580156128b7573d6000803e3d6000fd5b505050506040513d601f19601f82011682018060405250810190610c539190613534565b60335460ff161561282f576040517f08c379a000000000000000000000000000000000000000000000000000000000815260206004820152601060248201527f5061757361626c653a207061757365640000000000000000000000000000000060448201526064016107a8565b600082600001828154811061295f5761295f6135a1565b9060005260206000200154905092915050565b600054610100900460ff16612a09576040517f08c379a000000000000000000000000000000000000000000000000000000000815260206004820152602b60248201527f496e697469616c697a61626c653a20636f6e7472616374206973206e6f74206960448201527f6e697469616c697a696e6700000000000000000000000000000000000000000060648201526084016107a8565b612a11612f00565b612a19612fc1565b612a2161305f565b73ffffffffffffffffffffffffffffffffffffffff8116612a3f5750335b612a4a6000826130f6565b612a747fb19546dff01e856fb3f010c267a7b1c60363cf8a4664e21cc89c26224620214e826130f6565b610d4a7fb19546dff01e856fb3f010c267a7b1c60363cf8a4664e21cc89c26224620214e80613100565b6000838015612b3e57600184168015612ab957859250612abd565b8392505b50600283046002850494505b8415612b38578586028687820414612ae057600080fd5b81810181811015612af057600080fd5b8590049650506001851615612b2d578583028387820414158715151615612b1657600080fd5b81810181811015612b2657600080fd5b8590049350505b600285049450612ac9565b50612b54565b838015612b4e5760009250612b52565b8392505b505b509392505050565b606061052473ffffffffffffffffffffffffffffffffffffffff831660145b60606000612b8a8360026134c8565b612b95906002613638565b67ffffffffffffffff811115612bad57612bad613505565b6040519080825280601f01601f191660200182016040528015612bd7576020820181803683370190505b5090507f300000000000000000000000000000000000000000000000000000000000000081600081518110612c0e57612c0e6135a1565b60200101907effffffffffffffffffffffffffffffffffffffffffffffffffffffffffffff1916908160001a9053507f780000000000000000000000000000000000000000000000000000000000000081600181518110612c7157612c716135a1565b60200101907effffffffffffffffffffffffffffffffffffffffffffffffffffffffffffff1916908160001a9053506000612cad8460026134c8565b612cb8906001613638565b90505b6001811115612d55577f303132333435363738396162636465660000000000000000000000000000000085600f1660108110612cf957612cf96135a1565b1a60f81b828281518110612d0f57612d0f6135a1565b60200101907effffffffffffffffffffffffffffffffffffffffffffffffffffffffffffff1916908160001a90535060049490941c93612d4e8161390b565b9050612cbb565b508315610c53576040517f08c379a000000000000000000000000000000000000000000000000000000000815260206004820181905260248201527f537472696e67733a20686578206c656e67746820696e73756666696369656e7460448201526064016107a8565b6000818152600183016020526040812054612e0557508154600181810184556000848152602080822090930184905584548482528286019093526040902091909155610524565b506000610524565b60008181526001830160205260408120548015612ef6576000612e31600183613621565b8554909150600090612e4590600190613621565b9050818114612eaa576000866000018281548110612e6557612e656135a1565b9060005260206000200154905080876000018481548110612e8857612e886135a1565b6000918252602080832090910192909255918252600188019052604090208390555b8554869080612ebb57612ebb613940565b600190038181906000526020600020016000905590558560010160008681526020019081526020016000206000905560019350505050610524565b6000915050610524565b600054610100900460ff16612f97576040517f08c379a000000000000000000000000000000000000000000000000000000000815260206004820152602b60248201527f496e697469616c697a61626c653a20636f6e7472616374206973206e6f74206960448201527f6e697469616c697a696e6700000000000000000000000000000000000000000060648201526084016107a8565b603380547fffffffffffffffffffffffffffffffffffffffffffffffffffffffffffffff00169055565b600054610100900460ff16613058576040517f08c379a000000000000000000000000000000000000000000000000000000000815260206004820152602b60248201527f496e697469616c697a61626c653a20636f6e7472616374206973206e6f74206960448201527f6e697469616c697a696e6700000000000000000000000000000000000000000060648201526084016107a8565b6001606555565b600054610100900460ff1661282f576040517f08c379a000000000000000000000000000000000000000000000000000000000815260206004820152602b60248201527f496e697469616c697a61626c653a20636f6e7472616374206973206e6f74206960448201527f6e697469616c697a696e6700000000000000000000000000000000000000000060648201526084016107a8565b610d338282612268565b600082815260c96020526040808220600101805490849055905190918391839186917fbd79b86ffe0ab8e8776151514217cd7cacd52c909f66475c3af44e129f0b00ff9190a4505050565b60006020828403121561315d57600080fd5b81357fffffffff0000000000000000000000000000000000000000000000000000000081168114610c5357600080fd5b73ffffffffffffffffffffffffffffffffffffffff81168114610d4a57600080fd5b60008083601f8401126131c157600080fd5b50813567ffffffffffffffff8111156131d957600080fd5b6020830191508360208260051b85010111156131f457600080fd5b9250929050565b6000806000806060858703121561321157600080fd5b843561321c8161318d565b9350602085013561322c8161318d565b9250604085013567ffffffffffffffff81111561324857600080fd5b613254878288016131af565b95989497509550505050565b600081518084526020808501945080840160005b8381101561329057815187529582019590820190600101613274565b509495945050505050565b6040815260006132ae6040830185613260565b82810360208401526132c08185613260565b95945050505050565b6000806000606084860312156132de57600080fd5b83356132e98161318d565b925060208401356132f98161318d565b929592945050506040919091013590565b6000806000806080858703121561332057600080fd5b5050823594602084013594506040840135936060013592509050565b60006020828403121561334e57600080fd5b8135610c538161318d565b60006020828403121561336b57600080fd5b5035919050565b6000806040838503121561338557600080fd5b8235915060208301356133978161318d565b809150509250929050565b600080604083850312156133b557600080fd5b82356133c08161318d565b915060208301356133978161318d565b6000806000606084860312156133e557600080fd5b83356133f08161318d565b925060208401356134008161318d565b915060408401356134108161318d565b809150509250925092565b6000806040838503121561342e57600080fd5b50508035926020909101359150565b6000806000806060858703121561345357600080fd5b843561345e8161318d565b9350602085013567ffffffffffffffff81111561347a57600080fd5b613486878288016131af565b9598909750949560400135949350505050565b7f4e487b7100000000000000000000000000000000000000000000000000000000600052601160045260246000fd5b6000817fffffffffffffffffffffffffffffffffffffffffffffffffffffffffffffffff048311821515161561350057613500613499565b500290565b7f4e487b7100000000000000000000000000000000000000000000000000000000600052604160045260246000fd5b60006020828403121561354657600080fd5b8151610c538161318d565b60006020828403121561356357600080fd5b815167ffffffffffffffff81168114610c5357600080fd5b60006020828403121561358d57600080fd5b815163ffffffff81168114610c5357600080fd5b7f4e487b7100000000000000000000000000000000000000000000000000000000600052603260045260246000fd5b60007fffffffffffffffffffffffffffffffffffffffffffffffffffffffffffffffff820361360157613601613499565b5060010190565b60006020828403121561361a57600080fd5b5051919050565b60008282101561363357613633613499565b500390565b6000821982111561364b5761364b613499565b500190565b60006020828403121561366257600080fd5b815160ff81168114610c5357600080fd5b600181815b808511156136cc57817fffffffffffffffffffffffffffffffffffffffffffffffffffffffffffffffff048211156136b2576136b2613499565b808516156136bf57918102915b93841c9390800290613678565b509250929050565b6000826136e357506001610524565b816136f057506000610524565b816001811461370657600281146137105761372c565b6001915050610524565b60ff84111561372157613721613499565b50506001821b610524565b5060208310610133831016604e8410600b841016171561374f575081810a610524565b6137598383613673565b807fffffffffffffffffffffffffffffffffffffffffffffffffffffffffffffffff0482111561378b5761378b613499565b029392505050565b6000610c5383836136d4565b6000826137d5577f4e487b7100000000000000000000000000000000000000000000000000000000600052601260045260246000fd5b500490565b7f4e487b7100000000000000000000000000000000000000000000000000000000600052602160045260246000fd5b60005b8381101561382457818101518382015260200161380c565b83811115613833576000848401525b50505050565b7f416363657373436f6e74726f6c3a206163636f756e7420000000000000000000815260008351613871816017850160208801613809565b7f206973206d697373696e6720726f6c652000000000000000000000000000000060179184019182015283516138ae816028840160208801613809565b01602801949350505050565b60208152600082518060208401526138d9816040850160208701613809565b601f017fffffffffffffffffffffffffffffffffffffffffffffffffffffffffffffffe0169190910160400192915050565b60008161391a5761391a613499565b507fffffffffffffffffffffffffffffffffffffffffffffffffffffffffffffffff0190565b7f4e487b7100000000000000000000000000000000000000000000000000000000600052603160045260246000fdfea264697066735822122076385cccd6c5111a555998a05b3a14b6ba54de2fde9d2def2c4dae452be3749564736f6c634300080d0033",
  "devdoc": {
    "kind": "dev",
    "methods": {
      "getRoleAdmin(bytes32)": {
        "details": "Returns the admin role that controls `role`. See {grantRole} and {revokeRole}. To change a role's admin, use {_setRoleAdmin}."
      },
      "getRoleMember(bytes32,uint256)": {
        "details": "Returns one of the accounts that have `role`. `index` must be a value between 0 and {getRoleMemberCount}, non-inclusive. Role bearers are not sorted in any particular way, and their ordering may change at any point. WARNING: When using {getRoleMember} and {getRoleMemberCount}, make sure you perform all queries on the same block. See the following https://forum.openzeppelin.com/t/iterating-over-elements-on-enumerableset-in-openzeppelin-contracts/2296[forum post] for more information."
      },
      "getRoleMemberCount(bytes32)": {
        "details": "Returns the number of accounts that have `role`. Can be used together with {getRoleMember} to enumerate all bearers of a role."
      },
      "grantRole(bytes32,address)": {
        "details": "Grants `role` to `account`. If `account` had not been already granted `role`, emits a {RoleGranted} event. Requirements: - the caller must have ``role``'s admin role. May emit a {RoleGranted} event."
      },
      "hasRole(bytes32,address)": {
        "details": "Returns `true` if `account` has been granted `role`."
      },
      "paused()": {
        "details": "Returns true if the contract is paused, and false otherwise."
      },
      "renounceRole(bytes32,address)": {
        "details": "Revokes `role` from the calling account. Roles are often managed via {grantRole} and {revokeRole}: this function's purpose is to provide a mechanism for accounts to lose their privileges if they are compromised (such as when a trusted device is misplaced). If the calling account had been revoked `role`, emits a {RoleRevoked} event. Requirements: - the caller must be `account`. May emit a {RoleRevoked} event."
      },
      "revokeRole(bytes32,address)": {
        "details": "Revokes `role` from `account`. If `account` had been granted `role`, emits a {RoleRevoked} event. Requirements: - the caller must have ``role``'s admin role. May emit a {RoleRevoked} event."
      },
      "supportsInterface(bytes4)": {
        "details": "See {IERC165-supportsInterface}."
      }
    },
    "version": 1
  },
  "userdoc": {
    "kind": "user",
    "methods": {},
    "version": 1
  },
  "storageLayout": {
    "storage": [
      {
        "astId": 723,
        "contract": "contracts/protocol/pool/DistributionAssessor.sol:DistributionAssessor",
        "label": "_initialized",
        "offset": 0,
        "slot": "0",
        "type": "t_uint8"
      },
      {
        "astId": 726,
        "contract": "contracts/protocol/pool/DistributionAssessor.sol:DistributionAssessor",
        "label": "_initializing",
        "offset": 1,
        "slot": "0",
        "type": "t_bool"
      },
      {
        "astId": 5389,
        "contract": "contracts/protocol/pool/DistributionAssessor.sol:DistributionAssessor",
        "label": "__gap",
        "offset": 0,
        "slot": "1",
        "type": "t_array(t_uint256)50_storage"
      },
      {
        "astId": 906,
        "contract": "contracts/protocol/pool/DistributionAssessor.sol:DistributionAssessor",
        "label": "_paused",
        "offset": 0,
        "slot": "51",
        "type": "t_bool"
      },
      {
        "astId": 1011,
        "contract": "contracts/protocol/pool/DistributionAssessor.sol:DistributionAssessor",
        "label": "__gap",
        "offset": 0,
        "slot": "52",
        "type": "t_array(t_uint256)49_storage"
      },
      {
        "astId": 1026,
        "contract": "contracts/protocol/pool/DistributionAssessor.sol:DistributionAssessor",
        "label": "_status",
        "offset": 0,
        "slot": "101",
        "type": "t_uint256"
      },
      {
        "astId": 1095,
        "contract": "contracts/protocol/pool/DistributionAssessor.sol:DistributionAssessor",
        "label": "__gap",
        "offset": 0,
        "slot": "102",
        "type": "t_array(t_uint256)49_storage"
      },
      {
        "astId": 5736,
        "contract": "contracts/protocol/pool/DistributionAssessor.sol:DistributionAssessor",
        "label": "__gap",
        "offset": 0,
        "slot": "151",
        "type": "t_array(t_uint256)50_storage"
      },
      {
        "astId": 184,
        "contract": "contracts/protocol/pool/DistributionAssessor.sol:DistributionAssessor",
        "label": "_roles",
        "offset": 0,
        "slot": "201",
        "type": "t_mapping(t_bytes32,t_struct(RoleData)179_storage)"
      },
      {
        "astId": 479,
        "contract": "contracts/protocol/pool/DistributionAssessor.sol:DistributionAssessor",
        "label": "__gap",
        "offset": 0,
        "slot": "202",
        "type": "t_array(t_uint256)49_storage"
      },
      {
        "astId": 33,
        "contract": "contracts/protocol/pool/DistributionAssessor.sol:DistributionAssessor",
        "label": "_roleMembers",
        "offset": 0,
        "slot": "251",
        "type": "t_mapping(t_bytes32,t_struct(AddressSet)7046_storage)"
      },
      {
        "astId": 143,
        "contract": "contracts/protocol/pool/DistributionAssessor.sol:DistributionAssessor",
        "label": "__gap",
        "offset": 0,
        "slot": "252",
        "type": "t_array(t_uint256)49_storage"
      },
      {
        "astId": 39361,
        "contract": "contracts/protocol/pool/DistributionAssessor.sol:DistributionAssessor",
        "label": "registry",
        "offset": 0,
        "slot": "301",
        "type": "t_contract(Registry)40199"
      }
    ],
    "types": {
      "t_address": {
        "encoding": "inplace",
        "label": "address",
        "numberOfBytes": "20"
      },
      "t_array(t_bytes32)dyn_storage": {
        "base": "t_bytes32",
        "encoding": "dynamic_array",
        "label": "bytes32[]",
        "numberOfBytes": "32"
      },
      "t_array(t_uint256)49_storage": {
        "base": "t_uint256",
        "encoding": "inplace",
        "label": "uint256[49]",
        "numberOfBytes": "1568"
      },
      "t_array(t_uint256)50_storage": {
        "base": "t_uint256",
        "encoding": "inplace",
        "label": "uint256[50]",
        "numberOfBytes": "1600"
      },
      "t_bool": {
        "encoding": "inplace",
        "label": "bool",
        "numberOfBytes": "1"
      },
      "t_bytes32": {
        "encoding": "inplace",
        "label": "bytes32",
        "numberOfBytes": "32"
      },
      "t_contract(Registry)40199": {
        "encoding": "inplace",
        "label": "contract Registry",
        "numberOfBytes": "20"
      },
      "t_mapping(t_address,t_bool)": {
        "encoding": "mapping",
        "key": "t_address",
        "label": "mapping(address => bool)",
        "numberOfBytes": "32",
        "value": "t_bool"
      },
      "t_mapping(t_bytes32,t_struct(AddressSet)7046_storage)": {
        "encoding": "mapping",
        "key": "t_bytes32",
        "label": "mapping(bytes32 => struct EnumerableSetUpgradeable.AddressSet)",
        "numberOfBytes": "32",
        "value": "t_struct(AddressSet)7046_storage"
      },
      "t_mapping(t_bytes32,t_struct(RoleData)179_storage)": {
        "encoding": "mapping",
        "key": "t_bytes32",
        "label": "mapping(bytes32 => struct AccessControlUpgradeable.RoleData)",
        "numberOfBytes": "32",
        "value": "t_struct(RoleData)179_storage"
      },
      "t_mapping(t_bytes32,t_uint256)": {
        "encoding": "mapping",
        "key": "t_bytes32",
        "label": "mapping(bytes32 => uint256)",
        "numberOfBytes": "32",
        "value": "t_uint256"
      },
      "t_struct(AddressSet)7046_storage": {
        "encoding": "inplace",
        "label": "struct EnumerableSetUpgradeable.AddressSet",
        "members": [
          {
            "astId": 7045,
            "contract": "contracts/protocol/pool/DistributionAssessor.sol:DistributionAssessor",
            "label": "_inner",
            "offset": 0,
            "slot": "0",
            "type": "t_struct(Set)6731_storage"
          }
        ],
        "numberOfBytes": "64"
      },
      "t_struct(RoleData)179_storage": {
        "encoding": "inplace",
        "label": "struct AccessControlUpgradeable.RoleData",
        "members": [
          {
            "astId": 176,
            "contract": "contracts/protocol/pool/DistributionAssessor.sol:DistributionAssessor",
            "label": "members",
            "offset": 0,
            "slot": "0",
            "type": "t_mapping(t_address,t_bool)"
          },
          {
            "astId": 178,
            "contract": "contracts/protocol/pool/DistributionAssessor.sol:DistributionAssessor",
            "label": "adminRole",
            "offset": 0,
            "slot": "1",
            "type": "t_bytes32"
          }
        ],
        "numberOfBytes": "64"
      },
      "t_struct(Set)6731_storage": {
        "encoding": "inplace",
        "label": "struct EnumerableSetUpgradeable.Set",
        "members": [
          {
            "astId": 6726,
            "contract": "contracts/protocol/pool/DistributionAssessor.sol:DistributionAssessor",
            "label": "_values",
            "offset": 0,
            "slot": "0",
            "type": "t_array(t_bytes32)dyn_storage"
          },
          {
            "astId": 6730,
            "contract": "contracts/protocol/pool/DistributionAssessor.sol:DistributionAssessor",
            "label": "_indexes",
            "offset": 0,
            "slot": "1",
            "type": "t_mapping(t_bytes32,t_uint256)"
          }
        ],
        "numberOfBytes": "64"
      },
      "t_uint256": {
        "encoding": "inplace",
        "label": "uint256",
        "numberOfBytes": "32"
      },
      "t_uint8": {
        "encoding": "inplace",
        "label": "uint8",
        "numberOfBytes": "1"
      }
    }
  }
}