{
  "address": "0x6aB771fCed5FDF7632464FF75a147F9f367A610A",
  "abi": [
    {
      "inputs": [
        {
          "internalType": "address",
          "name": "_proxyTo",
          "type": "address"
        }
      ],
      "stateMutability": "nonpayable",
      "type": "constructor"
    },
    {
      "anonymous": false,
      "inputs": [
        {
          "indexed": false,
          "internalType": "address",
          "name": "_new",
          "type": "address"
        },
        {
          "indexed": false,
          "internalType": "address",
          "name": "_old",
          "type": "address"
        }
      ],
      "name": "ProxyOwnerUpdate",
      "type": "event"
    },
    {
      "anonymous": false,
      "inputs": [
        {
          "indexed": true,
          "internalType": "address",
          "name": "_new",
          "type": "address"
        },
        {
          "indexed": true,
          "internalType": "address",
          "name": "_old",
          "type": "address"
        }
      ],
      "name": "ProxyUpdated",
      "type": "event"
    },
    {
      "stateMutability": "payable",
      "type": "fallback"
    },
    {
      "inputs": [],
      "name": "implementation",
      "outputs": [
        {
          "internalType": "address",
          "name": "",
          "type": "address"
        }
      ],
      "stateMutability": "view",
      "type": "function"
    },
    {
      "inputs": [],
      "name": "proxyOwner",
      "outputs": [
        {
          "internalType": "address",
          "name": "",
          "type": "address"
        }
      ],
      "stateMutability": "view",
      "type": "function"
    },
    {
      "inputs": [],
      "name": "proxyType",
      "outputs": [
        {
          "internalType": "uint256",
          "name": "proxyTypeId",
          "type": "uint256"
        }
      ],
      "stateMutability": "pure",
      "type": "function"
    },
    {
      "inputs": [
        {
          "internalType": "address",
          "name": "newOwner",
          "type": "address"
        }
      ],
      "name": "transferProxyOwnership",
      "outputs": [],
      "stateMutability": "nonpayable",
      "type": "function"
    },
    {
      "inputs": [
        {
          "internalType": "address",
          "name": "_newProxyTo",
          "type": "address"
        },
        {
          "internalType": "bytes",
          "name": "data",
          "type": "bytes"
        }
      ],
      "name": "updateAndCall",
      "outputs": [],
      "stateMutability": "payable",
      "type": "function"
    },
    {
      "inputs": [
        {
          "internalType": "address",
          "name": "_newProxyTo",
          "type": "address"
        }
      ],
      "name": "updateImplementation",
      "outputs": [],
      "stateMutability": "nonpayable",
      "type": "function"
    },
    {
      "stateMutability": "payable",
      "type": "receive"
    }
  ],
  "transactionHash": "0xcff1a251d560885d873e53ef09d30f0a4880a4fed983d0867d6b8eb7606367ba",
  "args": [
    "0x2336e5364f52533efA3B0FbCBF06e899519BcE37"
  ],
  "numDeployments": 1,
  "solcInputHash": "6d62e1d3dd2d76916a48a9921b9a630a",
  "bytecode": "0x608060405234801561001057600080fd5b50604051610ab0380380610ab083398101604081905261002f91610085565b610057337f44f6e2e8884cba1236b7f22f351fa5d88b17292b7e0225ca47e5ecdf6055cdd655565b61007f817fbaab7dbf64751104133af04abc7d9979f0fda3b059a322a8333f533d3f32bf7f55565b506100b5565b60006020828403121561009757600080fd5b81516001600160a01b03811681146100ae57600080fd5b9392505050565b6109ec806100c46000396000f3fe6080604052600436106100695760003560e01c80635c60da1b116100435780635c60da1b14610146578063d88ca2c81461015b578063f1739cae1461016e576100a0565b8063025313a2146100cb578063025b22bc1461010a5780634555d5c91461012a576100a0565b366100a05761009e6100997fbaab7dbf64751104133af04abc7d9979f0fda3b059a322a8333f533d3f32bf7f5490565b61018e565b005b61009e6100997fbaab7dbf64751104133af04abc7d9979f0fda3b059a322a8333f533d3f32bf7f5490565b3480156100d757600080fd5b506100e06101b2565b60405173ffffffffffffffffffffffffffffffffffffffff90911681526020015b60405180910390f35b34801561011657600080fd5b5061009e6101253660046107e8565b6101e1565b34801561013657600080fd5b5060405160028152602001610101565b34801561015257600080fd5b506100e0610444565b61009e610169366004610839565b61046e565b34801561017a57600080fd5b5061009e6101893660046107e8565b6105ce565b3660008037600080366000845af43d6000803e8080156101ad573d6000f35b3d6000fd5b60006101dc7f44f6e2e8884cba1236b7f22f351fa5d88b17292b7e0225ca47e5ecdf6055cdd65490565b905090565b3361020a7f44f6e2e8884cba1236b7f22f351fa5d88b17292b7e0225ca47e5ecdf6055cdd65490565b73ffffffffffffffffffffffffffffffffffffffff161461028c576040517f08c379a000000000000000000000000000000000000000000000000000000000815260206004820152600960248201527f4e4f545f4f574e4552000000000000000000000000000000000000000000000060448201526064015b60405180910390fd5b73ffffffffffffffffffffffffffffffffffffffff8116610309576040517f08c379a000000000000000000000000000000000000000000000000000000000815260206004820152601560248201527f494e56414c49445f50524f58595f4144445245535300000000000000000000006044820152606401610283565b61031281610793565b61039e576040517f08c379a000000000000000000000000000000000000000000000000000000000815260206004820152602560248201527f44455354494e4154494f4e5f414444524553535f49535f4e4f545f415f434f4e60448201527f54524143540000000000000000000000000000000000000000000000000000006064820152608401610283565b7fbaab7dbf64751104133af04abc7d9979f0fda3b059a322a8333f533d3f32bf7f5473ffffffffffffffffffffffffffffffffffffffff168173ffffffffffffffffffffffffffffffffffffffff167fd32d24edea94f55e932d9a008afc425a8561462d1b1f57bc6e508e9a6b9509e160405160405180910390a3610441817fbaab7dbf64751104133af04abc7d9979f0fda3b059a322a8333f533d3f32bf7f55565b50565b60006101dc7fbaab7dbf64751104133af04abc7d9979f0fda3b059a322a8333f533d3f32bf7f5490565b336104977f44f6e2e8884cba1236b7f22f351fa5d88b17292b7e0225ca47e5ecdf6055cdd65490565b73ffffffffffffffffffffffffffffffffffffffff1614610514576040517f08c379a000000000000000000000000000000000000000000000000000000000815260206004820152600960248201527f4e4f545f4f574e455200000000000000000000000000000000000000000000006044820152606401610283565b61051d826101e1565b6000803073ffffffffffffffffffffffffffffffffffffffff1634846040516105469190610949565b60006040518083038185875af1925050503d8060008114610583576040519150601f19603f3d011682016040523d82523d6000602084013e610588565b606091505b50915091508181906105c7576040517f08c379a00000000000000000000000000000000000000000000000000000000081526004016102839190610965565b5050505050565b336105f77f44f6e2e8884cba1236b7f22f351fa5d88b17292b7e0225ca47e5ecdf6055cdd65490565b73ffffffffffffffffffffffffffffffffffffffff1614610674576040517f08c379a000000000000000000000000000000000000000000000000000000000815260206004820152600960248201527f4e4f545f4f574e455200000000000000000000000000000000000000000000006044820152606401610283565b73ffffffffffffffffffffffffffffffffffffffff81166106f1576040517f08c379a000000000000000000000000000000000000000000000000000000000815260206004820152600c60248201527f5a45524f5f4144445245535300000000000000000000000000000000000000006044820152606401610283565b7fdbe5fd65bcdbae152f24ab660ea68e72b4d4705b57b16e0caae994e214680ee28161073b7f44f6e2e8884cba1236b7f22f351fa5d88b17292b7e0225ca47e5ecdf6055cdd65490565b6040805173ffffffffffffffffffffffffffffffffffffffff93841681529290911660208301520160405180910390a1610441817f44f6e2e8884cba1236b7f22f351fa5d88b17292b7e0225ca47e5ecdf6055cdd655565b600073ffffffffffffffffffffffffffffffffffffffff82166107b857506000919050565b503b151590565b803573ffffffffffffffffffffffffffffffffffffffff811681146107e357600080fd5b919050565b6000602082840312156107fa57600080fd5b610803826107bf565b9392505050565b7f4e487b7100000000000000000000000000000000000000000000000000000000600052604160045260246000fd5b6000806040838503121561084c57600080fd5b610855836107bf565b9150602083013567ffffffffffffffff8082111561087257600080fd5b818501915085601f83011261088657600080fd5b8135818111156108985761089861080a565b604051601f82017fffffffffffffffffffffffffffffffffffffffffffffffffffffffffffffffe0908116603f011681019083821181831017156108de576108de61080a565b816040528281528860208487010111156108f757600080fd5b8260208601602083013760006020848301015280955050505050509250929050565b60005b8381101561093457818101518382015260200161091c565b83811115610943576000848401525b50505050565b6000825161095b818460208701610919565b9190910192915050565b6020815260008251806020840152610984816040850160208701610919565b601f017fffffffffffffffffffffffffffffffffffffffffffffffffffffffffffffffe016919091016040019291505056fea26469706673582212206625ff012fadedaa8b9d72cf8561af06f129b69d4779d8d0d8ec878a7483ecf664736f6c634300080d0033",
  "devdoc": {
    "kind": "dev",
    "methods": {},
    "version": 1
  },
  "userdoc": {
    "kind": "user",
    "methods": {},
    "version": 1
  },
  "storageLayout": {
    "storage": [],
    "types": null
  }
}